:0200000470107A
:1000000053544D32000000000000000000000000CA
:1000100000000000000000000000000000000000E0
:1000200000000000000000000000000000000000D0
:1000300000000000000000000000000000000000C0
:1000400000000000000000000000000000000000B0
:1000500000000000000000000000000000000000A0
:10006000000000002DEF480300030200C0BD0700A0
:10007000097D023400000000FFFFFFFF00000000C8
:100080000000000000000080A0010000000000004F
:100090000000000000000000000000000000000060
:1000A0005354FFFFA0010000D1942717855D1BB1B9
:1000B00074A84A0510B74720447F412BDE11471929
:1000C0009078167912EDC5B7B009D879B688EDE504
:1000D000D88AED20CE1CB5247FBDF5D1E5A6CA6037
:1000E0009ECEDBCB8FC296DE1206AC72363A48D675
:1000F000BA821666458AA6768F0B15AFD7AFE9FE92
:10010000120561AADA2E5B8598F2D05456588C6697
:100110006D41788EC53AFA94BBAA4690E6AC163289
:100120005EBEED7D9CB7FBF8C465780473CF2EEE00
:1001300031B91476A7317997AA54A26970306F9AB1
:10014000945805F95B565241DF7EBA7D3BC6D8DE36
:1001500043EDD4B8E82ED99DF02A8E68C8775AD0DE
:10016000D050DABD7887DC77E49E00AD70F8FEB43D
:10017000ACFAD9B863B46D93051968FA6A84491862
:100180000367E0ED8A918A1F661B3521121316342E
:1001900018770DC21FB0A07A7F295980644DF20FE5
:1001A000813D0833EB227273F7E88604854F4B5B81
:1001B000F6388A9DF76C4BAF1C9FDDE2889E110BD1
:1001C00069F25EFCABB102FFDFF3C944D5F360FA1C
:1001D00049C62422CB053D8FE93C61A33C3C5B43EF
:1001E000D33B696BF1A40A7F541961F27222F19B2F
:1001F00061D42AC5CC06B1ED56F92E8F4EE9C5B3B0
:100200007524356CC4ADF653FE63F1C0450883AD6B
:10021000BAE36A1F1C6AF0F4FAF9D26D20B20A063A
:10022000DA1E87C106E927DEE04B0FDEE1260E0865
:10023000333ECB5305E575974F66510952952ECF46
:1002400000000000000000000000000000000000AE
:10025000000000000000000000000000000000009E
:10026000000000000000000000000000000000008E
:10027000000000000000000000000000000000007E
:10028000000000000000000000000000000000006E
:10029000000000000000000000000000000000005E
:1002A000000000000000000000000000000000004E
:1002B000000000000000000000000000000000003E
:1002C000000000000000000000000000000000002E
:1002D000000000000000000000000000000000001E
:1002E000000000000000000000000000000000000E
:1002F00000000000000000000000000000000000FE
:1003000000000000000000000000000000000000ED
:1003100000000000000000000000000000000000DD
:1003200000000000000000000000000000000000CD
:1003300000000000000000000000000000000000BD
:1003400000000000000000000000000000000000AD
:10035000000000000000000000000000000000009D
:10036000000000000000000000000000000000008D
:10037000000000000000000000000000000000007D
:10038000000000000000000000000000000000006D
:10039000000000000000000000000000000000005D
:1003A000000000000000000000000000000000004D
:1003B000000000000000000000000000000000003D
:1003C000000000000000000000000000000000002D
:1003D000000000000000000000000000000000001D
:1003E000000000000000000000000000000000000D
:1003F00000000000000000000000000000000000FD
:1004000000001B34097D02347D3B0034657D0234DD
:100410007F3B0034813B0034657D0234833B0034F4
:10042000000000000000000000000000D1C2013404
:10043000853B00340000000061C2013489BF0134F3
:10044000657D023400000000657D0234657D023464
:10045000657D0234657D0234657D0234657D02343C
:10046000657D023400000000657D0234657D023444
:10047000657D0234F5250034657D023400000000FE
:10048000657D023400000000657D0234657D023424
:10049000657D0234657D0234657D0234657D0234FC
:1004A000657D0234657D0234657D0234657D0234EC
:1004B000657D0234657D0234657D0234657D0234DC
:1004C000657D0234657D0234657D0234657D0234CC
:1004D000657D0234657D0234657D0234657D0234BC
:1004E000657D023400000000657D0234657D0234C4
:1004F000657D0234657D0234657D0234873B0034BE
:10050000953B0034000000000000000000000000E7
:10051000657D023419430134657D0234657D023402
:10052000657D0234657D0234657D0234657D02346B
:100530001D350034657D023469C60134657D0234A1
:10054000657D0234657D0234657D0234657D02344B
:10055000657D0234657D0234657D0234657D02343B
:10056000657D0234657D0234657D0234657D02342B
:10057000657D0234657D0234657D0234657D02341B
:10058000657D0234657D0234657D0234657D02340B
:10059000657D0234657D0234657D0234657D0234FB
:1005A000657D0234657D0234657D0234657D0234EB
:1005B000657D0234657D0234657D0234657D0234DB
:1005C000657D0234657D0234657D0234657D0234CB
:1005D000657D0234657D0234657D0234657D0234BB
:1005E000657D0234657D0234657D0234657D0234AB
:1005F000657D0234657D0234657D0234657D02349B
:10060000657D0234657D0234657D0234657D02348A
:10061000657D0234657D0234657D0234657D02347A
:10062000657D0234657D0234657D0234657D02346A
:10063000657D0234657D0234657D0234657D02345A
:10064000657D0234657D0234657D0234657D02344A
:10065000657D0234657D0234657D0234657D02343A
:10066000657D0234657D0234657D0234657D02342A
:10067000657D0234657D0234657D0234657D02341A
:10068000657D0234657D0234657D0234657D02340A
:10069000657D0234657D0234657D0234657D0234FA
:1006A000657D0234657D0234657D0234657D0234EA
:1006B000657D0234657D0234657D0234657D0234DA
:1006C000657D0234657D0234657D0234657D0234CA
:1006D000657D0234657D0234657D0234657D0234BA
:1006E000657D0234657D0234657D0234657D0234AA
:1006F000657D0234657D0234657D0234657D02349A
:10070000657D0234A33B0034657D0234657D02348F
:10071000657D0234657D0234657D0234657D023479
:10072000657D0234657D0234657D0234657D023469
:10073000657D0234657D0234657D0234657D023459
:1007400000000000657D0234657D02340000000079
:1007500010B5054C237833B9044B13B10448AFF3FB
:1007600000800123237010BD00C00734000000008A
:1007700048CC023408B5034B1BB103490348AFF31F
:10078000008008BD0000000004C0073448CC0234DB
:10079000034613F8012B002AFBD1181A01387047C1
:1007A00090EDAD6A30B52DED108B90EDA87BB5EED8
:1007B000C06A87B08DED007BF1EE10FA90EDA47B5E
:1007C000044691ED015A91ED004A91ED02FB91ED45
:1007D000048B90ED123B90EDAADB90ED16BB8DEDF6
:1007E000047B90EDA6EB09DCD0F8C832D4489847DA
:1007F0004FF0FF3007B0BDEC108B30BDB8EE455B5D
:100800009FEDC17BB8EE444B25EE077BB4EEC47B75
:10081000F1EE10FA0FDD90ED1C7B9FEDBD2B37EE56
:10082000022B9FEDBD7BB4EEC72BF1EE10FA37FE25
:10083000027B80ED1C7B9FEDBA7B25EE075BB4EE5F
:10084000C45BF1EE10FA10D594ED1C7B9FEDB05B0C
:1008500037EE457B9FEDB45BB4EEC57BF1EE10FA4D
:1008600058BFB0EE475B84ED1C5B83EE0D9BBCEE86
:10087000C99BB8EE499B29EE0D9BFCEEC97B94F811
:100880005050CDED037A012DB7EEC66A52D19FEDDF
:10089000A87B3FEE485B85EE07CB3FEE085B85EE1D
:1008A00007ABB0EECC7BB4EEC76BF1EE10FAB0EE56
:1008B000CA5B0DDBB4EEC56BF1EE10FA08DB00236A
:1008C00084F878300023B0EE498B84F8603049E03A
:1008D000B4EEC56BF1EE10FA0CD58AEE0C5B94ED1C
:1008E000AE6AB0EEC55BB7EEC66AB4EEC65BF1EEBB
:1008F00010FAE7DA0023F7EECB0BB7EEC70B84F85C
:1009000060302CF03DF8B2EE047BB7EEC00AB0EEDA
:10091000C86B20EE070BB0EECF7BB4EEC67BF1EEDA
:1009200010FA6FDDB5EEC0FBF1EE10FA6FD539EEBF
:10093000400B6EE0B0EECF5BB0EEC87BB4EEC57B93
:10094000F1EE10FA37FE057BB4EEC67BF1EE10FA3D
:1009500053D89FED79AB0023B0EE498BB0EE4ACB74
:1009600084F8603094F878302BBB102204F18801B1
:1009700004F1800028F0F4FA102204F1A00104F13F
:10098000980028F0EDFAD4E9302384ED249BC4E9E3
:100990002C23D4E9322384ED2A8BC4E92E23D4E915
:1009A000342384ED34CBC4E93023D4E9362384EDF9
:1009B00036ABC4E93223FCEEC87B17EE903A94EDD7
:1009C0001A7B039AB5EEC07B93421CBF012384F8C7
:1009D0006030F1EE10FA40F3B580012384F8603006
:1009E0009DED007BB4EEC7BBF1EE10FA40F1BD8087
:1009F0009DED047B3BEE07EBA9E09FED4FABB0EE26
:100A00004ACB77E7B5EEC08BF1EE10FA8FD539EE11
:100A1000000B94ED3C7BB4EEC07BF1EE10FA2CD4CD
:100A2000B0EE407B94ED3A6BB4EEC76BF1EE10FA8A
:100A300026DCB0EE476B86EE0D8BBCEEC88BB8EEB5
:100A4000488B012D2DEE088B8CD1B4F8E030022BB1
:100A500019D8FCEEC97BB8EE677B04EBC30282EDCC
:100A6000207B82ED268B04EB0312013382ED2CCB2D
:100A700082ED2EABA4F8E03074E7B0EE4EBBD1E7C8
:100A8000B0EE4EBBD7E794ED2A7B94EDAF6A38EE1B
:100A9000477BB7EEC66AB0EEC77BB4EEC67BF1EE1D
:100AA00010FA28DB94ED287B38EE477BB0EEC77B4D
:100AB000B4EEC76BF1EE10FA1DDD94ED320B94ED40
:100AC000307B3AEE400B3CEE477B20EE000BA7EE6E
:100AD000070B2BF01DFF94EDB07AB7EEC77AB4EE9A
:100AE000C70BF1EE10FA06D5FCEEC97B84F87850FE
:100AF000B8EE678B36E794F87830012B7FF432AF8D
:100B0000002384F878302DE79A9999999999A93F0B
:100B10007B14AE47E17A843F343333333333C33FFE
:100B2000333333333333C33F111111111111B13F3B
:100B3000CD3B7F669EA0F63F000000000000000055
:100B4000A8B2073494F86030002B7FF449AF88EEE8
:100B50000D7BBCEEC77BB8EE477B27EE0D7B84EDAB
:100B600016EB84ED127B012044E69DED00EBEEE7F1
:100B700090ED1A6BB5EEC06B90ED124BF1EE10FAE2
:100B800090EDAA5BB0EE467BDFBF84EE057BBCEE4A
:100B9000C77BB8EE477B27EE057BB7EEC77B90EDB2
:100BA0003C5BB7EEC74AB4EEC54BF1EE10FAC8BFD6
:100BB000B7EEC57B90ED3A5BB7EEC74AB4EEC54BD6
:100BC000F1EE10FA48BFB7EEC57BB7EEC75AD0F8C2
:100BD000743230B580ED125B93ED005AD0EDAC7AF3
:100BE000B4EEC75AF1EE675AF1EE10FA4FF0000179
:100BF000B0F8F83075FEA77A013B8AB2934205D867
:100C0000442202FB030303F5907311E000EB82041E
:100C1000D4ED445A77EEA55AF4EEC75AF1EE10FA25
:100C200001F10101E9DB442303FB020202F59073A9
:100C3000B5EEC06BF1EE10FAC0F8743205DC93ED3E
:100C4000007AB7EEC77A80ED127B5A6803F138015B
:100C500042609A6803F124048260DA68C2601A690B
:100C6000026100F138025D690C334561DD680C30CA
:100C7000C5601D69A342056151F8045B42F8045B3D
:100C8000F1D1012030BD10B590B078B10022084CF0
:100C90004021084B2270C4F8C802074A68462BF06E
:100CA00003FE6846D4F8C8329847204610B010BDFD
:100CB00020C0073470BA0734E8B2073400280CBFEC
:100CC0004FF0FF300120704730B580ED000A0C680E
:100CD00044604C6884608C68C460C96802F1240474
:100CE000016100F1380115680C32456152F8085C69
:100CF0000C30C56052F8045CA242056153F8045BF5
:100D000041F8045BEFD130BD2DE9F04F2DED068B9E
:100D10000D46B0EE409BB0EE418B1E460446C9B076
:100D2000002800F085819FEDC6AB80ED12AB00205E
:100D3000C9494FF00008C4E91601C4E9A601C4E995
:100D4000AA01C649DFF84893C4F8B0124FF07E51AB
:100D5000C4F8B4124FF07C51C4E91A890FF2E829A3
:100D6000D9E90089C4E91C89C4E9A4894FF00008C5
:100D7000C4F8B812BA49DFF81C93C4F8BC124FF09B
:100D80007F510023C4E9A88901274FF00008C4F867
:100D9000C012691EDFF8009388B20428C4E9A08954
:100DA0000FF2AC29D9E9008984F86030C4E9A2893E
:100DB000A4F8E03084F87830A4F8787214D90523C8
:100DC0004FF48071A74A08A82BF06EFDD4F8C83202
:100DD00008A8984784F85070204649B0BDEC068BAF
:100DE000BDE8F04FFFF7C4BE96ED007AB7EEC77AC4
:100DF000B4EEC70BF1EE10FA12DDD4F8C8329A48FF
:100E0000984796ED007AB7EEC77A8DED009B8DED91
:100E1000027B964A4FF4807108A82BF045FDD5E778
:100E20004FF0440808FB05F806EB080919ED117AA4
:100E3000B7EEC77AB4EEC71BF1EE10FA45D4B3464D
:100E400037469946284601384DD11046914600272D
:100E5000A5F1020E01F1010CBCF1010C75D184ED7C
:100E60003A9B84ED3C8B21F04041A4F8F85004F506
:100E700088730131013940F0BF80002704F1FC0A7A
:100E800004F5907906EB070B09EB0700442259465D
:100E90001BF0B4FA4437DBF80030B8454AF8043B9D
:100EA000F0D16B1E9BB2002D03F1010314BF1A4653
:100EB0000122C4F8749204F5B271013A40F0A180A5
:100EC000012384F85030237086E7D4F8C83268488C
:100ED000984799ED007AB7EEC77A8DED008B8DEDCE
:100EE000027B644A96E7BA469AED007ADAED117A07
:100EF000B4EEE77AF1EE10FA09F1010307F14407C5
:100F000021DBD4F8C8225C480793904797ED007A1C
:100F1000B7EEC77A8DED047B079B584A02939AED92
:100F2000007AB7EEC77A4B468DED007B4FF48071A7
:100F300008A82BF0B9FCD4F8C83208A898470123B8
:100F400084F8503048E799467DE7BE45CA4607F128
:100F50000102F9EC017A1CD999ED007AB4EEE77A36
:100F6000F1EE10FA15D8D4F8C832454807929847E0
:100F700099ED007AB7EEC77A8DED047B079A3B4670
:100F800002929AED007AB7EEC77A3E4A8DED007B69
:100F9000CCE75B4693ED007AB4EEE77AF1EE10FA17
:100FA0000BF1440B06DA93ED117AB4EEE77AF1EE29
:100FB00010FA1FD8D4F8C8223348079390479BED06
:100FC000007AB7EEC77A8DED047B079B4FF48071F2
:100FD00093ED007AB7EEC77A8DED027B9AED007A39
:100FE000B7EEC77A3B468DED007B284A08A82BF068
:100FF0005BFCA0E717462FE750F8042B43F8042BBF
:1010000038E7D4F8743291ED006A93ED007AB7EEC8
:10101000C66AB7EEC77A36EE4A6B37EE4A7BB4EE55
:10102000C76BF1EE10FA48BFC4F87412443144E7BC
:101030004FF0FF3049B0BDEC068BBDE8F08F00BF2C
:10104000000000000088B3409A9999999999B93F96
:101050000000000000A06E400000F03F0000484289
:1010600000002F43F8B207343CB30734C3B307344E
:1010700021B40734A9B4073406B507346AB5073478
:10108000C2B5073431B607349BB60734F2B607341D
:101090000000F0BF000008400000244030B50546C5
:1010A00014468DB052B9D0F8C8321D489847D5F8CB
:1010B000C8321C48984720460DB030BD93ED042B34
:1010C00093ED021B93ED000B0AAA08A906A800F0F5
:1010D0002FF8DDE90823CDE90223DDE90A23CDE974
:1010E0000423012398420446CDE90033DFD1694649
:1010F0002846FFF755FB0128044603D0D5F8C8322F
:101100000948D7E795F86030012BD4D12846FFF77E
:101110002FFD01280446CED0D5F8C8320348C9E7D0
:1011200078B70734D9B7073402B8073436B807346C
:10113000B5EEC00BF1EE10FA1FB5B0EE417B1346D1
:1011400009D4B5EEC01BF1EE10FA04D4B5EEC02BF5
:10115000F1EE10FA0DD58DED022B8DED007B53ECE9
:10116000102B454827F07CFD4FF0FF3005B05DF8AF
:1011700004FB9FED336BB4EEC60BF1EE10FA09DC05
:10118000B4EEC61BF1EE10FA04DCB4EEC62BF1EEA1
:1011900010FA07DD8DED022B8DED007B53EC102B4B
:1011A0003648DFE728B181B1AAB93549354B0A463F
:1011B00007E069B933490A463248002B304B08BF73
:1011C0000346314827F04CFDCEE72D492D4AF3E781
:1011D0002C492B4AF0E79FED1C6B9FED1D5B21EE28
:1011E000066BB3EE004BA0EE056B9FED1B5BA2EE12
:1011F000046BA6EE054B9FED1A6B80ED004B26EEBF
:10120000416BBBEE0A4B9FED181BA0EE046B21EE69
:10121000471B9FED174BB2EE047BA0EE041BA2EE22
:10122000046BA2EE471B26EE056B21EE051B81ED3C
:10123000006B012082ED001B98E700BFAFF3008038
:101240000000000000E06F400000000000A06340CC
:101250000000000000804740000000000000703FD8
:101260000000000000805540000000000080594050
:101270000000000000005C406BB80734A9B80734D8
:10128000E63F0634E43F0634E9B8073400000000C6
:101290002DE9F04106469846736D0F4610460699B3
:1012A00023B9C8F800700860BDE8F081204D5B00EC
:1012B000B5FBF3F59542F4D2B2FBF5F407EE902AB4
:1012C00004FB0552B8EE677A07EE902ADFED196A43
:1012D000F8EE677A67EEA67AB4EEE77AF1EE10FAE6
:1012E000DFD5521B0A60013207EE902AF8EE677ACA
:1012F00087EE270AB7EEC00A29F006FF9FED0A7BAA
:1013000020EE070BBCEEC00B10EE103A3B441F461C
:10131000C8F80030F36CBB4294BFC8F80030C8F87E
:101320000070C1E7AFF30080000000000088D340E8
:1013300040420F003333733F07EE901A9FED287A37
:10134000F8EE677A70B587EE871A2DED028B08EEFE
:10135000102AB7EEC11AB2EE040B05461C46069ED3
:1013600029F0BAFFB8EE487B27EE007BFCEEC77B86
:1013700017EE902A696CB8EE677A914216D900236D
:101380002360C6ED007A6B6CDFED166A07EE903ACB
:10139000F8EE677A67EEA67AB4EE677AF1EE10FAA5
:1013A000C8BF1A463260BDEC028B70BD07EE901AC2
:1013B000F8EE677A87EE270A3160B7EEC00A29F0A7
:1013C000A3FE9FED057B20EE070BBCEEC00B84ED6A
:1013D000000AE8E7AFF30080000000000088D34077
:1013E00000409C4648E17A3F10B590B068B10022B9
:1013F000074C4021074B2270A065074A68462BF036
:1014000053FA6846A36D9847204610B010BD00BF40
:10141000F0C2073476BA073433B9073400280CBF5A
:101420004FF0FF300120704738220A2330B5C0E961
:10143000042364222D237821C0E9062340F2DC53E3
:1014400041F27074C0E9081342F6E063C0E90A4350
:101450000BA5D5E90045052348F2E8010365002303
:10146000C0E910310121C0E90C4507A5D5E90045C7
:10147000C0E91212C0E90E45436530BDAFF30080EC
:1014800000000040E17A943F000000E04D62703FB0
:1014900010B5044620B1FFF7C7FF0120207010BD32
:1014A0004FF0FF30FBE72DE9F04F0F461546984609
:1014B000044689B0002800F03B810378012B1CD141
:1014C00002230370D4F85490B9F1000F19D09C4B4B
:1014D0004FEA4902B3FBF2F3A66CBE4213D2626C30
:1014E000AA4210D9B5FBF3F203FB12535BB1C4E976
:1014F0000156012009B0BDE8F08F022BE2D0002098
:10150000F8E70123E8E70DF1140A394604AB2A464F
:101510002046CDF800A0FFF70FFFDDE904B1D4F8B5
:1015200010C0B6EE005B07EE90CAB8EE676A07EE31
:10153000908AB8EEE77BB7EEC66A37EE057B86EE9B
:10154000070B236DB7EEC00B98450ED3ACEB08002C
:10155000E36980EAE072A2EBE0729A4259D9236A09
:101560009A422CBFE36AA36A54E0F0EE007AB4EE2C
:10157000E70AF1EE10FAE9D4626C91422BD201290C
:101580000B4638BF012307EE903AF8EEE77A67EE94
:10159000807AFDEEE77A17EE903A93420EDCC4EDC6
:1015A000017A07AB00932046D4E9012106ABFFF78F
:1015B0006FFE069BA360079B63609AE707EE902A85
:1015C000F8EEE76A07EE901AB8EE677AC6EE877A09
:1015D00080EE270A6260F7EE007AB4EEE70AF1EED9
:1015E00010FADEDDB7EEC00A29F08EFDB3EE047B03
:1015F00020EE070B9FED507B20EE070BBDEEC00BDE
:1016000010EE103AE26C5B449342D4BFA360A26038
:10161000C7E7636AD4F814E0A26903930EEB0C03E6
:10162000434500FB02F24CD2DDED037A9FED457A93
:10163000F8EEE77A67EE877A07EE102AF1EE676A2E
:10164000B8EEC77AB4EEE67AF1EE10FA04D5FDEE04
:10165000E77A17EE903A5A42002A57D05E454AD1AF
:10166000656CA94236D3002A45DA01FB000007EE7B
:10167000900AB8EEE76B07EE901A94ED0E5BB8EEA9
:10168000E77BA6EE057BBDEEC77B17EE102A236C29
:10169000C4F808B09A42B8BF1A46AA42D4BF6260E2
:1016A00065602046CDF800A004ABD4E90121FFF726
:1016B000EFFD049B059DA360234B6560C3F860901C
:1016C00017E7ACEB0E0CC44520DD039B9A42A8BF84
:1016D0001A46C1E7002AC8DB01FB000007EE900AAA
:1016E000B8EEE76B07EE901A94ED0C5BB8EEE77B73
:1016F000A5EE067BC7E793445E4504DCE36C5E46DB
:101700009B45A8BF1E46C4E90116CAE70E4B1B6ED7
:1017100099450BD02A4639462046CDF800A004ABA7
:10172000B9F1000FC3D1FFF707FEC2E7A760C3E717
:101730004FF0FF30DEE600BF0000000000408F40A9
:1017400040420F009A99593FF0C2073481F000419E
:1017500002E000BF83F0004330B54FEA41044FEA96
:10176000430594EA050F08BF90EA020F1FBF54EA31
:10177000000C55EA020C7FEA645C7FEA655C00F0CD
:10178000E2804FEA5454D4EB5555B8BF6D420CDD9E
:101790002C4480EA020281EA030382EA000083EA21
:1017A000010180EA020281EA0303362D88BF30BDC1
:1017B00011F0004F4FEA01314FF4801C4CEA113117
:1017C00002D0404261EB410113F0004F4FEA033376
:1017D0004CEA133302D0524263EB430394EA050F01
:1017E00000F0A780A4F10104D5F1200E0DDB02FA70
:1017F0000EFC22FA05F2801841F1000103FA0EF204
:10180000801843FA05F359410EE0A5F120050EF1C9
:10181000200E012A03FA0EFC28BF4CF0020C43FAFA
:1018200005F3C01851EBE37101F0004507D54FF007
:10183000000EDCF1000C7EEB00006EEB0101B1F557
:10184000801F1BD3B1F5001F0CD349085FEA30009D
:101850004FEA3C0C04F101044FEA445212F5800FA8
:1018600080F09A80BCF1004F08BF5FEA500C50F145
:10187000000041EB045141EA050130BD5FEA4C0C28
:10188000404141EB0101013C28BFB1F5801FE9D285
:1018900091F0000F04BF01460020B1FA81F308BFA8
:1018A0002033A3F10B03B3F120020CDA0C3208DD74
:1018B00002F1140CC2F10C0201FA0CF021FA02F14F
:1018C0000CE002F11402D8BFC2F1200C01FA02F1BF
:1018D00020FA0CFCDCBF41EA0C019040E41AA2BFE4
:1018E00001EB0451294330BD6FEA04041F3C1CDAAC
:1018F0000C340EDC04F11404C4F1200220FA04F0CC
:1019000001FA02F340EA030021FA04F345EA030175
:1019100030BDC4F10C04C4F1200220FA02F001FA37
:1019200004F340EA0300294630BD21FA04F02946B9
:1019300030BD94F0000F83F4801306BF81F4801152
:101940000134013D4EE77FEA645C18BF7FEA655CC5
:1019500029D094EA050F08BF90EA020F05D054EA97
:10196000000C04BF1946104630BD91EA030F1EBF9C
:101970000021002030BD5FEA545C05D140004941A0
:1019800028BF41F0004130BD14F580043CBF01F593
:10199000801130BD01F0004545F0FE4141F4700179
:1019A0004FF0000030BD7FEA645C1ABF1946104654
:1019B0007FEA655C1CBF0B46024650EA013406BF55
:1019C00052EA033591EA030F41F4002130BD00BF14
:1019D00090F0000F04BF0021704730B54FF48064D1
:1019E00004F132044FF000054FF0000150E700BF52
:1019F00090F0000F04BF0021704730B54FF48064B1
:101A000004F1320410F0004548BF40424FF000019D
:101A10003EE700BF42004FEAE2014FEA31014FEAE0
:101A200002701FBF12F07F4393F07F4F81F060512F
:101A3000704732F07F4208BF704793F07F4F04BF7A
:101A400041F40021704730B54FF4607401F0004557
:101A500021F000411CE700BF50EA010208BF7047B7
:101A600030B54FF000050AE050EA010208BF7047A8
:101A700030B511F0004502D5404261EB41014FF411
:101A8000806404F132045FEA915C3FF4D8AE4FF019
:101A900003025FEADC0C18BF03325FEADC0C18BFFC
:101AA000033202EBDC02C2F1200300FA03FC20FA4D
:101AB00002F001FA03FE40EA0E0021FA02F114449A
:101AC000BDE600BF80F0004002E000BF81F00041B1
:101AD00042001FBF5FEA410392EA030F7FEA226CD4
:101AE0007FEA236C6AD04FEA1262D2EB1363C1BF64
:101AF000D218414048404140B8BF5B42192B88BFD3
:101B0000704710F0004F40F4000020F07F4018BFF5
:101B1000404211F0004F41F4000121F07F4118BF15
:101B2000494292EA030F3FD0A2F1010241FA03FCBD
:101B300010EB0C00C3F1200301FA03F100F00043A5
:101B400002D5494260EB4000B0F5000F13D3B0F16D
:101B5000807F06D340084FEA310102F10102FE2ADC
:101B600051D2B1F1004F40EBC25008BF20F001004C
:101B700040EA03007047490040EB0000013A28BFEB
:101B8000B0F5000FEDD2B0FA80FCACF1080CB2EB6E
:101B90000C0200FA0CF0AABF00EBC25052421843EC
:101BA000BCBFD0401843704792F0000F81F4000191
:101BB00006BF80F400000132013BB5E74FEA410364
:101BC0007FEA226C18BF7FEA236C21D092EA030FD0
:101BD00004D092F0000F08BF0846704790EA010F4A
:101BE0001CBF0020704712F07F4F04D1400028BF77
:101BF00040F00040704712F100723CBF00F5000059
:101C0000704700F0004343F0FE4040F4000070478E
:101C10007FEA226216BF08467FEA2363014642023A
:101C200006BF5FEA412390EA010F40F4800070474D
:101C30004FF0000304E000BF10F0004348BF4042F3
:101C40005FEA000C08BF704743F0964301464FF02F
:101C500000001CE050EA010208BF70474FF000038B
:101C60000AE000BF50EA010208BF704711F00043CC
:101C700002D5404261EB41015FEA010C02BF84469C
:101C80000146002043F0B64308BFA3F18053A3F5FB
:101C90000003BCFA8CF2083AA3EBC25310DB01FA42
:101CA00002FC634400FA02FCC2F12002BCF1004FC6
:101CB00020FA02F243EB020008BF20F00100704757
:101CC00002F1200201FA02FCC2F1200250EA4C00AB
:101CD00021FA02F243EB020008BF20EADC707047F1
:101CE0007BB972B90029BEBF00204FF0004106E069
:101CF00008BF00281CBF6FF000414FF0FF3000F01C
:101D0000C9B9ADF1080C6DE904CE002909DB002B3F
:101D10001ADB00F04DF8DDF804E0DDE9022304B041
:101D20007047404261EB4101002B1BDB00F040F8A3
:101D3000DDF804E0DDE9022304B0404261EB41013B
:101D4000524263EB43037047524263EB430300F09C
:101D50002FF8DDF804E0DDE9022304B0404261EB36
:101D600041017047524263EB430300F021F8DDF874
:101D700004E0DDE9022304B0524263EB4303704701
:101D800053B94AB9002908BF00281CBF4FF0FF31E2
:101D90004FF0FF3000F07EB9ADF1080C6DE904CED4
:101DA00000F006F8DDF804E0DDE9022304B0704736
:101DB0002DE9F04F099D0C46002B4DD18A420F466C
:101DC00084469646B2FA82F360D94BB102FA03FE1A
:101DD000C3F120029F4000FA03FC20FA02F21743ED
:101DE0004FEA1E461FFA8EF44FEA1C42B7FBF6F18B
:101DF00006FB117701FB04F042EA0742904208D942
:101E00001EEB020201F1FF3702D2904200F22D8157
:101E10003946121A1FFA8CFCB2FBF6F006FB1022B0
:101E200000FB04F44CEA024C644508D91EEB0C0C90
:101E300000F1FF3202D2644500F21A81104640EAF6
:101E40000140ACEB040C002125B12CFA03F3002275
:101E5000C5E90032BDE8F08F8B4205D90DB1C5E967
:101E6000000100210846F5E7B3FA83F100294DD1BE
:101E7000A342C0F0F280904280F0EF8006462346F5
:101E80000846002DE6D0C5E90063E3E7002B40F0EB
:101E9000A2808A1A4FEA1E471FFA8EF60121B2FB72
:101EA000F7F407FB14204FEA1C4242EA004206FB0B
:101EB00004F090420FD91EEB020204F1FF382CBF50
:101EC0004FF001094FF00009904203D9B9F1000F1A
:101ED00000F0C8804446121A1FFA8CFCB2FBF7F0DF
:101EE00007FB102200FB06F64CEA024C664508D9B7
:101EF0001EEB0C0C00F1FF3202D2664500F2BB80F3
:101F00001046ACEB060C40EA04409DE7C1F1200608
:101F10008B4004FA01FE22FA06F720FA06FCF44090
:101F20008A401F434EEA0C0300FA01FE4FEA1748AD
:101F30004FEA13491FFA87FCB4FBF8F008FB104482
:101F400049EA044400FB0CF9A1450ED93C1900F103
:101F5000FF3A2CBF4FF0010B4FF0000BA14503D906
:101F6000BBF1000F00F093805046A4EB09041FFA68
:101F700083F9B4FBF8F308FB134403FB0CFC49EAB8
:101F80000444A44506D93C1903F1FF3801D2A44505
:101F90007AD8434643EA0040A4EB0C04A0FB029825
:101FA0004445CC46434602D306D1CE4504D201383F
:101FB000B9EB020C68EB07035DB1BEEB0C0264EBFE
:101FC000030404FA06F622FA01F3CC401E43C5E9E5
:101FD000006400213EE702FA03FEC3F1200104FA87
:101FE00003F200FA03FCCC404FEA1E4720FA01F14D
:101FF0001FFA8EF6B4FBF7F00A4307FB1044110CEE
:1020000041EA044100FB06F48C420ED91EEB0101AB
:1020100000F1FF382CBF4FF001094FF000098C424E
:1020200002D9B9F1000F2CD04046091B92B2B1FB86
:10203000F7F407FB141142EA014204FB06F1914256
:1020400007D91EEB020204F1FF3801D2914215D8E4
:102050004446521A44EA004121E7861A64EB03031E
:1020600001200EE7023C724435E702397244D0E6A3
:10207000F4440238E3E6F444023842E7023C724496
:10208000E7E702387144D0E7023B3C4482E702387C
:102090003C446AE7704700BF044B82B0C3F84C0A67
:1020A000D3F84C320193019B02B070470080025676
:1020B000044B82B0C3F8600AD3F860320193019BED
:1020C00002B070470080025630B5ADF51B7D40224E
:1020D0000021684626F05EFF9822002110A826F015
:1020E00059FF4FF4C872002136A826F053FF012093
:1020F0000FF0B8FF012002F03BF800231922CDE9D0
:102100001D3208220225CDE92323CDE92932E1221F
:1021100001247D21CDE91A53CDE92153CDE92B329C
:102120001093032310A8CDE91F44CDE92514CDE970
:102130002745CDE92D451C952F9307F09BF800B15D
:10214000FEE74FF440337F22CDE900234FF0407388
:1021500002934FF08053CDE90C344FF00053CDE99A
:102160000E344FF48013CDE90804CDE90A05CDE91A
:102170000330CDE905000790684607F07DFC00B10B
:10218000FEE7084B002261934FF44003CDE936236C
:10219000054B36A8629307F0F5FF00B1FEE70DF599
:1021A0001B7D30BD14000003140400032DE9F0472B
:1021B0009AB002F047FB02AB014601AA4FF0FF3094
:1021C00002F048FB0024DDE9011220B2013402F0E4
:1021D000ADFAC32CF7D1FFF777FF19F089FE102372
:1021E0009C4C0226C4F86C3AD4F86C224FF00108DB
:1021F0000492049AC4F85C3AD4F85C32964803938B
:10220000039B60231593072315A91993CDE916683D
:10221000189605F02BFB4FF4E133904890494FF0AE
:102220000C09C0E900130023C0E90439C0E90233F6
:1022300083614FF40043C3610DF0CCFF054600B14C
:10224000FEE74FF00040DFF850A2FFF731FFC4F87F
:10225000200ACAF820024046FFF71EFF3046FFF76B
:102260001BFF0420FFF718FF0820FFF715FF4FF4AE
:102270008053C4F8543AD4F8543215A80593059BFA
:10228000784BCDE91655159306F04EFC764B15A804
:10229000159306F049FC754B15A8159306F044FC00
:1022A000734B15A8159306F03FFC01F039FC30463E
:1022B000FFF7FEFEC4F8206ACAF8206212F0D4F9D3
:1022C00012F0DCF9284610F02FFC284610F050FDE3
:1022D00040F2011369462846ADF8003010F0DEFAEE
:1022E000284610F049FA28460FF0FAFE30B140F2C5
:1022F0006D11604B604A614825F036FD40460FF095
:10230000EFFE074620B14FF4B8715A4B5A4AF2E734
:102310004FF400730325C4F8583AD4F858324046B5
:10232000149315A9149B1596169506F025FB15A96F
:10233000082006F021FB15A9092006F01DFB4846E0
:1023400015A906F019FB15A9042006F015FB29466E
:102350004B4806F065FB29464A4806F061FB2946D2
:10236000494806F05DFB2946484806F059FB2946D6
:10237000474806F055FB2946464806F051FB4FF406
:102380008063C4F8583AD4F858221592159AC4F8C4
:10239000183ACAF818324FF0FF33C4F8843AD4F828
:1023A00084221392139AC4F88C3AD4F88C22129295
:1023B000129AC4F8903AD4F890221192119AC4F863
:1023C000943AD4F894221092109AC4F8983AD4F817
:1023D00098220F920F9AC4F89C3AD4F89C220E923D
:1023E0000E9AC4F8A03AD4F8A0220D920D9AC4F81F
:1023F000A43AD4F8A4220C920C9AC4F8A83AD4F8BF
:10240000A8220B920B9AC4F8AC3AD4F8AC220A92E8
:102410000A9AC4F8B43AD4F8B4220992099AC4F8D2
:10242000B83AD4F8B8220892089AC4F8BC3AD4F85A
:10243000BC220792079AC4F8883AD4F888320693E7
:10244000069B00F027FE384618F036FD1AB0BDE8AE
:10245000F08700BF0080025600100256B4D3073444
:1024600000100052003102528031025200320252FA
:102470008032025252D50234B2D5023468D50234C9
:102480000A000030050000301C0000201D00002064
:10249000010000301800001000900256484A70B544
:1024A00013688AB043F400531360464B1A6A22F44F
:1024B00040321A621A6A22F040721A6202F075F80B
:1024C0004FF4806305A8ADF8143002F01FFA3E4BBC
:1024D000002207933D4B06A8089301238DF81A208C
:1024E000ADF81830099302F00BFA042002F0F6F967
:1024F000374B5A6912F4003211D1BFF34F8FBFF33B
:102500006F8FC3F85022BFF34F8FBFF36F8F5A699D
:1025100042F400325A61BFF34F8FBFF36F8F284AE6
:10252000136843F480531360A2F57342536913F4A4
:10253000803328D1C2F88430BFF34F8F43F6E07464
:10254000D2F88030C3F3C900C3F34E335B0100F10E
:10255000010E01464EF001E003EA040646EA8175E9
:10256000C2F8605201390FF007C8203B13F1200F69
:10257000EDD1BFF34F8F536943F480335361BFF301
:102580004F8FBFF36F8F134B4FF480620293124B48
:1025900012490193012312480093002318F040FCD4
:1025A00030B940F23D110F4B0F4A104825F0DCFBCB
:1025B00018F0DCFC4FF4A0710D4B0B4AF5E700BF9F
:1025C00000E001E00080025600001B34E3801F346D
:1025D00000ED00E054D3073454C3073473D50234FC
:1025E000AD21003478D50234C2D5023468D5023426
:1025F000DE350634FEE700B5E5B04FF4C8720021C1
:10260000684626F0C7FC00231022CDE900234FF4D2
:1026100000134FF08051329303236846CDE9221313
:1026200007F0B0FD48B900230822CDE90023282394
:1026300024906846259307F0A5FD65B05DF804FB7E
:1026400007B5194B02689A4206D040F2A711174B02
:10265000174A184825F088FB4FF48022164BC3F820
:102660005C2AD3F85C320193019B06F0CBFB134A42
:10267000D36B5B03FCD506F0A5FB4FF08060FFF742
:1026800017FD0F4B4FF000601A6822F070021A60BD
:102690001A6842F020021A60FFF70AFDB12003B069
:1026A0005DF804EB02F0A0B80000045884D50234B1
:1026B000A2D5023468D50234008002560048025682
:1026C00000FC035808B54FF48060FFF7E5FC4FF0BD
:1026D0008040FFF7EDFC044BC3F8200A03F580535C
:1026E000C3F8200208BD00BF0080025600BEFEE70E
:1026F00084B001A880E80E000120024B04B01860ED
:102700000FF0CEBCD035083410B5494204460068FD
:1027100018F0D4F870B1D4F8B43004EB8302D2F8D6
:10272000AC00D4F8A820013393FBF2F102FB113383
:10273000C4F8B43010BD000010B5094C4FF0FF31A3
:10274000206818F0BBF8012806D040F2BA21054BEA
:10275000054A064825F008FB01F03AFBEEE700BF0A
:10276000A4D40734D0D5023491D80234DED5023453
:1027700070B51A4E04460D4630684FF0FF3118F020
:102780009DF8012805D0DC21154B164A164825F086
:10279000EBFAD4E90201281841EBE5712560656880
:1027A000C4E9020101356560FFF754FA07EE905A5B
:1027B00006EE900AF8EEE77A002386EEA77A1A462C
:1027C00084ED047A1946306817F06CFE012803D0B6
:1027D000E421034B034AD9E770BD00BFD0630C343A
:1027E000D0D5023452D80234DED502342DE9F04778
:1027F0008AB00E4604469246994601F0FBFA6FF005
:102800002802134D2B8802FB030801F0F3FA074658
:1028100001F004FB94ED047AB7EEC77A8DED087BE6
:1028200022680346CDE905A20A4A31460492129A6B
:10283000284601320392084A02926A8809FB02F292
:10284000CDE900823A4601F019F80AB0BDE8F087F8
:10285000DC630C343D340634E8D502340022024BEC
:1028600001201A600FF02CBCD035083408B5064B97
:102870001A6832B940F2CE21044B054A054825F0CA
:1028800073FA00221A6008BDCC35083403D602342E
:102890000DD80234DED5023410B54FF0FF310446B6
:1028A000406D18F00BF8012806D040F22F110A4BAA
:1028B0000A4A0B4825F058FAD4F8B83004EB8302E2
:1028C000D2F8AC00D4F8A820013393FBF2F102FB5C
:1028D0001133C4F8B83010BDD0D5023472D80234E8
:1028E000DED5023438B50D4602210446021D0846E5
:1028F00017F0B8FD206050B10021022004F1580209
:1029000017F0B0FD606528B9206818F0D7F84FF0CF
:10291000FF300DE00223C4F8A8302B684BB1C4F897
:10292000AC306B682BB10020C4E92D00C4F8B03086
:1029300038BD4FF48271024B024A034825F014FA65
:1029400011D6023401D80234DED50234002313B587
:102950000446019319F0FEFB0346B0B1606D01A976
:1029600017F0C0FE012806D04FF49F710D4B0E4AA0
:102970000E4825F0F9F9019B2BB14FF0E0234FF001
:102980008052C3F8042D02B010BD02460146606DAE
:1029900017F088FD0128F6D04FF4A171014B024ACF
:1029A000E6E700BFD0D5023423D80234DED50234A6
:1029B000036870B5002BBCBF002303600B6805469D
:1029C000002BBCBF00230B6006680C4601F012FA16
:1029D000864203DB01F00EFA01382860256801F019
:1029E0001DFA854203DB01F019FA0138206070BD41
:1029F00008B500231A46194617F054FD012806D0E1
:102A00004FF49371024B034A034825F0ADF908BD1A
:102A1000D0D5023442D80234DED502342DE9F84F45
:102A200001F0A6F9044601F09FF9054611F0D8FA25
:102A3000434811F089FAD4E90223D5E90256A3F5F7
:102A4000B753183B934206D04FF4C2713D4B3E4AF8
:102A50003E4825F089F901F089FB00213C48FFF749
:102A600053FE20B94FF4C5713A4B374AF0E70021C5
:102A700001F09AF9DFF8D880374FDFF8F490761B31
:102A800001F074FB4046FFF707FF834620B94FF47F
:102A9000CB71324B2C4ADBE701213846FFF734FE7D
:102AA000824620B94FF4CC712D4B274AD0E701F074
:102AB0005DFB044601F05AFB3246054659460020AC
:102AC00001F0CCF80AF01F0E0EF5B75E53460EF17A
:102AD000180EBFF34F8F0EF1FF3E4FEA5E1E0EF150
:102AE000010E4EF001E0C9F85C3220330FF005C84A
:102AF000BFF34F8FBFF36F8F41F2F8625146002052
:102B000001F0C6F820B14FF4D171164B0E4A9FE781
:102B10000B4800F009FD01F029FB411B1248FFF7AB
:102B200027FED8F80000FFF763FF3846FFF70EFFD7
:102B300001F01CFB011B0D48FFF71AFEA0E700BFC8
:102B40008CBA07341CD6023434D80234DED50234B1
:102B5000A0600C343DD60234E0310C3449D6023446
:102B600058D6023466D6023408630C34F0620C3452
:102B700000ED00E0000000002DE9F04F2DED088B86
:102B8000D1B05B491FA812F0C3F89FED5AAA9FED80
:102B9000569B5948FFF780FE044630B940F29E210B
:102BA000564B574A574825F0DFF801F0DFFA0790F7
:102BB00001F0DCFA00230546139301211FAB13AA91
:102BC0000EA80E9412F0C0F8064620B140F2A621DD
:102BD0004D4B4B4AE6E701F0C9FA4C4C411B04F15E
:102BE00020074B4804F13805FFF7C2FD0FCF0FC592
:102BF00097E8030085E8030001F00CFB0546C4E9F3
:102C0000080618F0ABFE2D1A63EB0303C4E90A5360
:102C100001F0ACFAA36C226E20639B1AB3F57A7FA5
:102C20000DD23C4BD3F800803B4BB8F1000F0ED1D6
:102C3000C3F80080304B1868FFF7DAFEA9E790224E
:102C400004F1380104F1500026F08AF9E9E71B6825
:102C5000002B32D0314B1D68003D18BF01254FF4C9
:102C600061122F4B2F4C1B6815AF02FB034401F080
:102C70007DFADFF8C8C00890BCE80F000FC7BCE8B9
:102C80000F000FC79CE8030087E8030001F0C6F8B7
:102C9000DFF8A490244FB9F802304FF0FF3190FBD9
:102CA000F3FA3868AAF10403099317F007FE012824
:102CB00005D0EC211D4B1E4A74E70125CFE7902279
:102CC0001C492CA819F09AFB002338681A461946AB
:102CD00017F0E8FB012800F0C880F121134B144ADB
:102CE00060E700BFAFF30080000000000000594023
:102CF0008CBA07340000C842E0310C3458D6023494
:102D000083D80234DED5023485D6023410620C3406
:102D100038630C34D035083450D40734C8350834FF
:102D2000BCBA073400980491D0630C34D0D5023477
:102D300063D80234F0620C34D4630C34E0CC023437
:102D40001823139F03FB0677D7ED00AA97ED018A9E
:102D500001F050F808EE900A01F060F807EE900AD2
:102D6000F8EEE77A67EE887AF8EEE88AFDEEE77A21
:102D700097ED02BA17EE90BA68EEAA8AD7ED03AAC9
:102D800001F038F808EE100A01F048F8B8EEC88AE9
:102D900007EE900A28EE0B8AF8EEE77ABDEEC87AC5
:102DA000FDEEE88A67EEAA7A17EE103A18EE902A3E
:102DB000FDEEE77A013303EBD3735B105B429A18A5
:102DC0000F9217EE902A013202EBD2725210524249
:102DD00002EB0B01109118EE901AABEB0202CB1A2A
:102DE0000FA810A911931292FFF7E2FD12A911A8E2
:102DF000FFF7DEFDDDE90F2B119B97ED048A9B1A8F
:102E00001BB20A93129B0D92A3EB0B031BB20C9304
:102E100000F0F0FF0B9001F001F80D9A0C9B17B237
:102E20004FF0FF3202930A9B0FFA8BFB0B99CDE90F
:102E300000B303923B460246204600F065FC00F0DA
:102E4000D9FF0A9000F0EAFF28EE0A7AB7EEC77AB7
:102E50007B4A0346CDE901B28DED047B214648460D
:102E60000A9A009700F00AFD0136149B9E42FFF675
:102E700067AF329E00F0BEFF814600F0CFFF07EE45
:102E8000906AB8EE677B8DED047B10266D4A6E4F1D
:102E900002927A88099903464A4301924A46DFF82A
:102EA000F09138462146009600F0E8FCD9E91C3242
:102EB000D9E91601C01A61EB0201FEF7CDFDD9E98F
:102EC0001A3241EC180BD9E91401C01A61EB020166
:102ED000FEF7C2FD28EE098B41EC160B88EE067B4F
:102EE000B7EEC78B00F086FF814600F097FFB7EE84
:102EF000C88A8DED048B554AAAF1030A02927A889A
:102F000021460AFB02F20346CDE9006238464A46F2
:102F100000F0B4FC149B092B28BF09231F4600F0C6
:102F200069FF814600F07AFF4021CDE90266CDE9D4
:102F3000001150AB03EB870302464946204653F885
:102F4000EC3C00F08FFC00200FF054F901284049C0
:102F5000404A06D10B6823B91368B3FA83F35B09BF
:102F60001360136808605BB3002704260123214621
:102F7000394A2CA80097FFF739FC02232146374A2B
:102F800032A80096FFF732FC03232146344A38A8C2
:102F90000097FFF72BFC33462146324A3EA80096A5
:102FA000FFF724FC052321462F4A44A80096FFF78B
:102FB0001DFC062321462D4A00964AA8FFF716FC61
:102FC00001F0D4F8089BC11A2948FFF7D1FB01F0A2
:102FD000CDF82B4606464FF47F322046254900F0B7
:102FE000FBFC041E244D06DD244B1B6813B3012398
:102FF0004FF0FF342B6001F0B9F8811B2048FFF738
:10300000B7FB002C09DD01231C4E21461D4833600F
:1030100023F046FF08B10023336000232B601A4BD6
:10302000C3F8008001F0A2F8079BC11A1748FFF708
:103030009FFBFFE522460F49124819F0DFF9DAE756
:10304000A7D60234B0D60234D4630C34C7D60234C7
:103050004CD4073448D40734DFD60234F1D60234D6
:10306000FFD6023411D702341FD702342DD70234D1
:1030700050630C3400001B34C8350834CC35083498
:1030800068630C34E035083450D4073420630C34C2
:1030900010620C3470B50024B6B0A82200210CA830
:1030A00025F078FF7948CDE909440B9425F040FEDE
:1030B000774A2146D2F8FC30204643F08073C2F8AC
:1030C000FC300FF039F8014630B140F2E221714B8B
:1030D000714A724824F048FEE0227148714C25F094
:1030E00059FF94E8030005AB83E8030019466E48D6
:1030F000FFF7F8FB20B14FF43A716C4B664AE8E7F2
:1031000007ABD4E9020183E8030019466848FFF7DA
:10311000E9FB20B140F2EA21644B5F4AD9E76549F7
:10312000654800F021FA20B140F2EE215F4B5A4A87
:10313000CFE76249624800F017FA044620B14FF425
:103140003C715A4B544AC4E701255E4B1E26C3F816
:10315000785AD3F878320493049B0DF02BF900F0E1
:10316000E7FE00F047FE099000F058FE0A9009A81B
:103170000B9600F0B3FB00F03DFE0D9000F04EFE0C
:103180000523514A0C93514BCDE90E061360504B69
:103190000CA953604F4B50489360CDE9345523F050
:1031A0008DFD214628464D4A17F05CF94C4B1860BE
:1031B00020B940F20D314B4B374A8AE72146284669
:1031C000494A17F04FF9494B186020B940F20F31C6
:1031D000474B314A7DE72846464917F005FA464BEA
:1031E000186020B940F21131444B2B4A71E7284650
:1031F000434917F0F9F9434B186020B940F21331F5
:10320000414B254A65E72146404800F0B9FD404B57
:103210004FF4006202933F4B3F4901931D233F4807
:103220000093234617F0FCFD20B940F21B313C4BC4
:10323000194A4EE73B4B4FF4006202933A4B3B492D
:1032400001931A233A480093002317F0E9FD20B9AF
:1032500040F21E31324B104A3BE7364B4FF40062CE
:103260000293354B354901931E23354800930023C3
:1032700017F0D6FD20B940F22131294B064A28E744
:1032800000200EF00DFF36B070BD00BF3BD70234FA
:1032900000ED00E052D50234A0D80234DED502346D
:1032A00010620C3408CD0234A0600C344CD70234C8
:1032B000E0310C34DC630C34CCBA0734D4630C3406
:1032C000D4BA073400800256D4350834F1260034CD
:1032D0005D2800346D2800340000045854D40734AD
:1032E000A4D4073455D7023464610C34B4610C346F
:1032F0005DD70234B8610C3408620C3467D70234ED
:1033000080630C34D0630C3472D70234009804917B
:10331000683508346815083481D702341D2A003412
:1033200078D502340815083408F5073484D70234F8
:10333000792B0034A8F40734A8D4073487D7023493
:103340003927003401282DE9F04105462BD103230C
:10335000DFF8A480214FD8F800603C6801360134C2
:1033600096FBF3F294FBF3F302EB420203EB43030D
:10337000E41AB61A11F0F8FE4FF46112184B294600
:1033800002FB0433002203F0EBFC30B14FF4A771D1
:10339000144B154A154824F0E7FCC8F800603C605F
:1033A0000020BDE8F0810228FAD100211048FFF783
:1033B000ABF904460028F3D011F0D6FE23460022D4
:1033C000294603F0CDFC20B140F25D11054B094ABE
:1033D000E0E70748FFF7BAFAE2E700BF5C610C34A8
:1033E000009804918BD70234E7D70234DED502343B
:1033F000A0600C34C8D70234BCBA0734012807B522
:1034000010D100230193094B01A9186817F06AF93C
:10341000012807D1019B2BB14FF0E0234FF08052E0
:10342000C3F8042D002003B05DF804FBA4D40734D6
:10343000094B10B54FF0FF310446186817F03EFAFB
:10344000012806D040F23D31044B054A054824F0DE
:103450008BFC054B1C6010BD08620C34D0D50234C7
:10346000BCD70234DED5023460610C3408B50023C9
:1034700007481A461946006817F014F8012806D0C4
:1034800040F24731034B044A044824F06DFC08BD68
:1034900008620C34D0D50234AED70234DED5023403
:1034A00008B5084B4FF0FF31186817F007FA0128EC
:1034B00006D040F24F31044B044A054824F054FC36
:1034C00008BD00BFB4610C34D0D50234A5D7023496
:1034D000DED50234002307B501930C4B01A918680F
:1034E00017F000F9012806D04FF45671084B094A2D
:1034F000094824F039FC019B2BB14FF0E0234FF039
:103500008052C3F8042D03B05DF804FBB4610C34A1
:10351000D0D5023499D70234DED50234014B186875
:1035200004F06AB860610C3410B50446204610F00F
:10353000A3FD012802D110F019FBF7E70228F5D10D
:103540002046BDE8104010F041BD000008B525211F
:10355000024B034A034824F007FC00BFDE35063463
:10356000FD580534E05805342DE9F04F8588C788AB
:1035700004464FF4BE7007FB05F887B000FB08F067
:103580000E4624F02BFC0346706000285AD04FF002
:10359000000C5F204FF0010B22683580778001928C
:1035A000E28807350292ED104FEA8802049207FB89
:1035B00005F2A6880592F41D24F0070EB200E40877
:1035C00003920EF1FF3E99464FF00008019A02EB7C
:1035D0000C05029A904508D3049A01381344059AC1
:1035E0009444F0D107B0BDE8F08F2978012C0A4649
:1035F00004D0022C10D12A8852BA92B20027BE42BF
:1036000006F1010108BF012101390CD1039A08F12B
:10361000010891442544DCE76A78090441EA022163
:10362000AA780A43EAE7AEEB070A0BFA0AFA1AEAA3
:10363000020F14BF4FF0FF3A4FF0804A49F827A01D
:103640000137E1E74FF0FF30CCE70000F0B59DB067
:103650000D46144600216022064604A81F4625F0A8
:1036600099FC4FF44033224A02A8CDE902232B1BD8
:103670000593FFF7DDFE02A803F01CFE28B16E21C2
:103680001C4B1D4A1D4824F06FFB012102A804F0C9
:103690003DF818B17121174B174AF3E73C2001F0B0
:1036A000A3F8174B24990A93164B00970B93DDE967
:1036B000222303FB052202A8234606EB820203F025
:1036C00083FE18B178210B4B0B4ADBE7FFF7E8FECE
:1036D0003C2001F09DF802A803F056FF18B17F21AD
:1036E000044B054ACEE7FFF7C1FE1DB0F0BD00BF99
:1036F000001002588BD7023411590534E0580534B4
:10370000D53800344D3500342DE9FF470546DDE955
:103710000C7ADDE90E980E461C4652460093CDE920
:1037200001780123FFF792FF07EB0903013BCDE985
:1037300000435246314628460123CDF80880FFF762
:1037400085FF4B463146284600940122CDE9017899
:10375000FFF77CFF4B460122314628465444013C8A
:10376000CDE90D780C9404B0BDE8F047FFF76EBFCB
:103770002DE9F0419CB01D460F4604460021164637
:1037800004A8602225F006FC4FF400332F4A02A85B
:10379000A7EB0508CDE90223CDF81480FFF748FE1A
:1037A00002A803F087FD28B13A21294B294A2A486B
:1037B00024F0DAFAFF230121CDE90C80CDE91000D5
:1037C000CDE91503CDE91300CDE917000E9002A84D
:1037D0000F9303F09BFF014618B14B211C4B1D4A70
:1037E000E5E702A803F092FF18B14D21184B194AE2
:1037F000DDE71A4B3C200A93194B0B93DDE923328A
:1038000002FB073304EB830400F0EEFF229B224609
:10381000CDE900533146234602A803F00FFE18B14C
:1038200054210B4B0B4AC2E7FFF73AFE3C2000F055
:10383000EFFF02A803F0A8FE18B15B21044B054A74
:10384000B5E7FFF713FE1CB0BDE8F0810010025889
:103850008BD70234EB580534E0580534D5380034A2
:103860004D35003470B41A46DDE90556DDE9033400
:10387000CDE90456039470BCFFF77ABF00232DE90D
:10388000F04397B08DF85430044621AB88469146FA
:103890004021209A05A81E9F049325F0BFFA05AD8C
:1038A00015F8016B16B917B0BDE8F083608823885E
:1038B000203E03FB00F2724361681F9E0090CDE939
:1038C000017601EB820240464946FFF751FF23880B
:1038D0001F44E5E708B5FFF7FDFD08BDF0B5074655
:1038E00001253326DDB0342200210BA825F052FB40
:1038F000BB68354C5A1E22613A6821460C927A68A0
:103900000BA8CDE90D238DF82D508DF82E600F9565
:10391000129518F01FFF28B1D3212C4B2C4A2D48AB
:1039200024F022FA6946206819F057FC18B1D72113
:10393000264B274AF3E70B23694620688DF81030A1
:1039400019F06AFB18B1DA21204B214AE7E7206819
:1039500027A919F036F918B1DE211C4B1C4ADEE705
:10396000206827A9299518F02DFF18B1E121174BE0
:10397000174AD4E7206818A919F0FEFA18B1E52112
:10398000124B134ACBE7D7E900314B430C21BA68FD
:10399000CDE9185553434B431E21192593FBF1F3F1
:1039A0000A211A90CDE91B511F90229018A9206876
:1039B0001D9621921E9319F0D9F918B1F221034BEB
:1039C000034AACE75DB0F0BDE8630C34235905341D
:1039D00051590534355905342DE9F04F3B4C81469A
:1039E0009846D4E900030D46174699B0002B6BD1D9
:1039F000CDE9101112920CA903AA19F03DFC002880
:103A00005DD1049E05EB060C1CF007031DD0C3F12D
:103A1000080ABAF1060FC3F1100338BF9A46BB1B60
:103A200053454CD30123A8558CF803302C238CF834
:103A300001008CF802008CF80430FF21AAF1050285
:103A40000CF1050025F0A6FA53461E4401236360DD
:103A50000021D4E902AB3544BF1BCDE90D11CDE9FE
:103A600010552269CDF830901297B8F1000F09D1A6
:103A7000013250465946D317FEF782F91A4314BF54
:103A80000121002101230F930323ADF854300023BB
:103A9000CDE900338DF84C10206803AA0CA9CDE9BC
:103AA000163319F023FD012809D1D4E90232049814
:103AB000013342F10002C4E90232304401E04FF028
:103AC000FF3019B0BDE8F08F0026C1E7E8630C3481
:103AD00024F08CB908B524F065F930B94FF48D7134
:103AE000024B034A034824F03FF908BD435905340B
:103AF0004759053435590534074830B50368074D33
:103B00005C18AC4297BF04604FF0FF300020C2E960
:103B1000003198BF936030BDC0BA07340058ED91B2
:103B20001FB5154B7C2101AA02A802930BF01CFFC4
:103B30000346E0B9019A02F4C031B1F5C03F17D095
:103B400042F4C0327C2102A801920BF029FF68B92F
:103B50007C2101AA02A80BF007FF30B9019B03F4F6
:103B6000C033B3F5C03F03D0FEE7FEE7FEE7FEE754
:103B700005B05DF804FB00BF009000567047FEE7FB
:103B8000FEE7FEE7FEE708B511F0EEFABDE80840F3
:103B900001F064BC08B511F0E7FABDE8084001F097
:103BA00027BB23F07BB900000149024810F078BD23
:103BB000806D2034C067203430B5254CAFB020680C
:103BC000D22500F5B85100F5B75010F069FDB422C8
:103BD000002101A825F0DEF940F2BE5107222A2378
:103BE0001E20CDE90615CDE90222CDE90D228DF882
:103BF00004300A910123119178224FF45271CDE9DA
:103C00000403CDE90803CDE90F03CDE91212042026
:103C100041F2F862CDE9140222680E4D16920E4A66
:103C200001A8219210328DF830308DF85C301C9351
:103C30008DF8883027932C928DF8B4300B9510F0C6
:103C4000F3FB206800F5B85110F054FD2FB030BDE3
:103C500060190D34C0672034B0A9E07040B911F08C
:103C60001F0007D1B2F5133F06D3044B196070470C
:103C700003207047012070470220704764190D34FB
:103C800010B9024B186870470020704764190D3452
:103C900048B911F01F0008D141F2F7639A4206D9E2
:103CA000044B1960704703207047012070470220C1
:103CB000704700BF60190D3410B9024B1868704787
:103CC0000020704760190D3400220E4B13B51A60A6
:103CD0000FF01AFF0C490D4810F0DAFC0FF02CFF22
:103CE00042F655530A49094801AA019310F04EFCC7
:103CF000044618B10449054810F0FCFC204602B007
:103D000010BD00BF00640C345C190D3408640C3421
:103D10003866053413B50FF0F7FE0C490C4810F067
:103D2000B7FC0FF009FF0B4B002200930A4B084928
:103D30001B680A4810F064FC044618B103490448A3
:103D400010F0D8FC204602B010BD00BF5C190D3445
:103D500008640C3400640C3464190D345066053466
:103D600000487047CC650534004870475C650534F1
:103D700000487047C464053400487047BC5E053491
:103D80000A4608B50146012011F0B4FA28B1C6214F
:103D9000024B034A034823F0E7FF08BDD81B063453
:103DA000D01C0634EE1B06340A4608B50146022034
:103DB00011F0A0FA28B1CE21024B034A034823F0A8
:103DC000D3FF08BDD81B0634BF1C0634EE1B0634D7
:103DD00008B511F0ABFB28B1D621034B034A0448C8
:103DE00023F0C2FF08BD00BFD81B0634B11C063447
:103DF000EE1B063408B5054B186828B9DB21044BC7
:103E0000044A054823F0B0FF08BD00BF70190D3407
:103E1000FC1B0634A01C0634EE1B063408B5054B0B
:103E2000186828B9E221044B044A054823F09CFF96
:103E300008BD00BF6C190D34071C06348E1C0634F7
:103E4000EE1B063407EE901A70B52DED068B144666
:103E5000F8EEE78A0D460646FFF7CCFF07EE900A1C
:103E6000F8EEE79A07EE904AB8EEE78AFFF7D6FF3A
:103E700007EE900AF8EEE77A88EEA9AA88EE279A6C
:103E8000B4EE49AAF1EE10FAF7EE007A48BFB0EEB0
:103E90004A9AB4EEE79AF1EE10FA05DA50211F4B78
:103EA0001F4A204823F060FFDFED1F7AB4EEE79A47
:103EB000F1EE10FA03D451211C4B194AF1E769EED7
:103EC000897AF4EEE78AF1EE10FACCBFFCEEE78ACD
:103ED000FCEEE88AC6ED008AFFF7A0FF07EE900A25
:103EE000F8EEE77A67EE897AB4EEE78AF1EE10FA37
:103EF00018EE903ACCBFBCEEE78ABCEEC88A01351A
:103F0000ED1A18EE103A0134E41A6D08640886EDD3
:103F1000018ABDEC068BB560F46070BD131C0634DD
:103F20000E1D0634EE1B0634000080421E1C0634B3
:103F30002DE9F04395B00DF1070011F007FA28B113
:103F4000AC21774B774A784823F00EFF9DF8073075
:103F5000022B07D0032B35D0012B3DD04421734BCE
:103F6000734AF0E74FF422614FF4F3621F464FF4B7
:103F7000A0644FF434706F4D6F4E2A606F4ADFF8C3
:103F8000E88114606E4A316010606E4A6E4852F8E3
:103F90002310C8F8007024F063FE336800210393F7
:103FA0002B6803A804931E23CDE90531D8F800300F
:103FB0000791089311F058FA0446A8B1B721584B5D
:103FC000584AC0E74FF448714FF4167201274FF476
:103FD00020744FF4F070CEE74FF48C614FF43472DC
:103FE0001F460C461046C6E7039B04273360049B1C
:103FF0002B6011F0B9F840F22F210F23CDE90C44CA
:104000000224CDE90E1309A90546CDE909440B9711
:1040100000F0F0FF18B18F214C4B4D4A93E7052378
:104020004FF40C72099340F27F230F9009A92846A0
:10403000CDE90B74CDE90D2300F0DCFF054618B186
:104040009821424B424A7EE7FFF7D4FEDDE903891F
:104050000646FFF7E3FE864203DA5F213D4B3E4A08
:1040600071E70996FFF7DAFE03264A464146CDE995
:104070000A0410A8CDE90D550C970F96FFF7E2FE44
:10408000012002AA09A911F073F818B16A212F4B77
:10409000314A58E70C9A099B5343029A934203D042
:1040A0006B212E4B2C4A4EE70125DDE90312E0235C
:1040B000CDE90B06CDE90D5010A8CDE909330F96D7
:1040C000FFF7C0FE204602AA09A911F051F818B165
:1040D0007D211E4B224A36E70C9A099B5343029AD4
:1040E000934203D07E211D4B1D4A2CE711F03CF872
:1040F0004FF460422946044602F0C2FE18B1A021E6
:10410000124B184A1FE72946204602F011FF18B14A
:10411000A2210E4B134A16E715B0BDE8F08300BF8D
:10412000D81B06345C1D0634EE1B0634DE3506341F
:104130004A1D063474190D3478190D3470190D3474
:104140006C190D34941D0634291C06348BD70234A7
:10415000381D0634361C0634211D0634501C063426
:10416000FC1C0634E61C063468190D3416F056BFE4
:1041700008B5EFF305832BB12721044B044A05480A
:1041800023F0F2FDBDE8084017F0AAB8DE3506348A
:10419000C31D0634A41D063400207047042213B545
:1041A000154B164CC3F8642AD3F864320193019B73
:1041B000134B23604FF0FF33E36005F0B7FE114B64
:1041C000B0FBF3F000230138606020462361A36058
:1041D0000DF010FE28B13E210B4B0C4A0C4823F089
:1041E000C3FD20460DF044FC18B14121064B074A9F
:1041F000F4E702B010BD00BF008002563C2C0D3425
:1042000000080050A08601008BD70234B71D063489
:10421000A41D0634014B1B68586A70473C2C0D34B2
:10422000034B0360034B0B604FF4806313607047D4
:10423000DC2B0D34DC1B0D34034B0360034B0B6094
:1042400080231360704700BF7C1B0D347C190D3434
:10425000444B454A70B501209A600225002243492B
:10426000434E01F58054C1F8180AC4F81802C4F886
:104270005802C3F8D820C3F8DC20C3F8E020C3F804
:10428000D800C3F8DC20C3F8E020C3F8D8500325D9
:10429000C3F8DC20C3F8E020C3F8D8500425C3F8E5
:1042A000DC20C3F8E020C3F8D8500525C3F8DC2093
:1042B000C3F8E020C3F8D8500625C3F8DC20C3F8C3
:1042C000E020C3F8D8500725C3F8DC20C3F8E0206D
:1042D000C3F8D850C3F8DC20C3F8E020C1F8780A4E
:1042E000D1F878229A683261224AD56B45F480551C
:1042F000D563D56B45F01005D563D26BD1F8742228
:1043000042F40042C1F87422D1F8782242F010023F
:10431000C1F87822D1F87822D1F8782222F0100260
:10432000C1F878224FF44052C1F8202AC4F8202264
:104330004022C1F8240AC4F82402C4F86402C4F874
:104340005C223269C4F87802D3F8882042F4700203
:10435000C3F88820084AD2F8883043F47003C2F8C2
:10436000883070BD00ED00E000040034008002568B
:10437000008000560048025600ED02E07A4BF0B58E
:104380001A6A02F44012B2F5001F00F0CF8008D87C
:10439000002A39D0B2F5801F3CD00022734B1A603E
:1043A000F0BDB2F5401FF8D1D3F8C42002F040525E
:1043B000B2F1805F36D0B2F1005F44D0002A52D112
:1043C000D3F8802012F0006502F0E04140F0B780A1
:1043D000D3F88400D3F88830C2F30B2620F07F4056
:1043E0000D46B5F1005FC3F3C264C2F30551C3F3D8
:1043F000026300F0928000F29B80002D47D0B5F15F
:10440000805F7AD0002249E09B6C594AC3F3C11304
:10441000DA40C3E75B6C574A13F4007F564B08BF82
:104420001A46BBE7D3F8902012F0006502F0E04195
:1044300040F08580D3F89400C2F30B26D3F898306F
:1044400020F07F40CCE7D3F8A02012F0006502F006
:10445000E04174D1D3F8A400C2F30B26D3F8A830FE
:1044600020F07F40BCE7D3F8B02012F0006502F0E6
:10447000E04164D1D3F8B400C2F30B26D3F8B830CE
:1044800020F07F40ACE70B460C4608460E46364A05
:10449000976C374AC7F3C117FA402DBB07EE900A55
:1044A00007EE106AFAEEC47AB8EEC77A37EE877A6A
:1044B00007EE902AF8EEE77A67EE277A07EE101AF1
:1044C000B8EEC77AC7EE876A07EE904AB8EEE77A89
:1044D00007EE903AF8EEE77A27EE277AC6EE877A6B
:1044E000FCEEE77A17EE902A1F4BD3F8C430C3F3E3
:1044F00007430133B2FBF3F250E700251A4A1E4F7F
:10450000526C12F4007F1B4A08BF3A46C5E70023ED
:104510001C4618461E461946F0E70025174ABCE718
:1045200000231C4618461E461946F7E7134A35E78E
:10453000B5F1405F7FF466AF0025114AADE7B1F1F8
:10454000005FEDD006D800299DD0B1F1805FDED0AC
:104550000022C9E7B1F1405FFAD100231C4618469A
:104560001E461946E9E700BF00800256C4BA073468
:104570000090D0030024F40000093D00006CDC0230
:104580000080BB006DED81CF00B5FFF7F7FE054B56
:104590005DF804EB18689FEC100A9FE80E90FDECA4
:1045A00081CF7447C4BA0734704710B5032000F0B8
:1045B0009FF8FFF7E3FE0F20FFF7EEFD044618B962
:1045C000FFF7F2FF204610BD0124FBE7014B5869BD
:1045D000704700BF00900056014B9869704700BFBC
:1045E00000900056014BD869704700BF00900056FC
:1045F00038B54B7805460F2B0C4604D940F2D12133
:104600002948FEF773F82378012B04D940F2D22110
:104610002548FEF76BF86378AB602B6923F0010344
:104620002B61637B012B04D940F2DB211E48FEF78E
:104630005DF8A37B012B04D94FF437711A48FEF7BC
:1046400055F8237B032B04D940F2DD211648FEF7F1
:104650004DF8E37B9A1E012A05D923B140F2DE21F1
:104660001148FEF743F8A378072B04D940F2DF2165
:104670000D48FEF73BF86368627B23F01F0313438A
:10468000E27B43EAC203227B43EA4203EB60A36876
:10469000227823F01F031343A27B43EA0213A2787C
:1046A00043EA42032B6138BDCD1D063438B50B7883
:1046B0000446072B0D4604D940F2F3210B48FEF7C0
:1046C00015F8FF212B78032B92BF04F1300004F181
:1046D0003400043B0268DB00994022EA0102697859
:1046E00001FA03F31343036038BD00BFCD1D063448
:1046F000C31E042B10B5044603D9E6210948FDF773
:10470000F5FF09492302CA6803F4E06322F4E0627A
:104710001204120C134343F0BF6343F40033CB6025
:1047200010BD00BFCD1D063400ED00E010F10C0FF0
:104730002DE9F04105460C46174601DB031D03D168
:10474000FF212648FDF7D2FF254BDE68C6F302267F
:10475000022E06D857B14FF481712048FDF7C6FFED
:1047600004E00123F21E9340BB42F4D90F2CC6F1A2
:10477000070804D8012303FA08F3A34204D840F23F
:1047800003111648FDF7B2FFB8F1040F06F1040358
:1047900028BF4FF004084FF0FF32062BA6F10306A6
:1047A00098BF002602FA08F824EA0803B24027EA74
:1047B0000207B340002D43EA0703ACBF05F1604593
:1047C000084A4FEA0313DBB2ABBF05F5614505F0BC
:1047D0000F0585F800335355BDE8F081CD1D063433
:1047E00000ED00E014ED00E0002808DB01234109A2
:1047F000054A00F01F00834042F82130704740F224
:1048000015110248FDF772BF00E100E0CD1D06342E
:1048100000280DDB01220949430900F01F008240F6
:10482000203341F82320BFF34F8FBFF36F8F7047C2
:104830004FF493710248FDF759BF00BF00E100E05B
:10484000CD1D0634024BD868C0F30220704700BF6C
:1048500000ED00E010F10C0FF8B504460D461746C8
:104860001E4601DB031D04D14FF4BC711948FDF74E
:104870003DFFEB1E042B04D940F279111548FDF7DA
:1048800035FF002CACBF04F16044134B05F0070169
:10489000C1F10702ABBF04F5614404F00F0494F8C2
:1048A00000331B5D081D042A28BF04220628A1F13D
:1048B00003014FF0FF3098BF00211B0900FA02F2FC
:1048C00023FA01F4884024EA020223EA00033A6052
:1048D0003360F8BDCD1D063414ED00E0BFF35F8FEB
:1048E000064B40F00100C3F894005A6A42F480324B
:1048F0005A62BFF34F8FBFF36F8F704700ED00E038
:1049000001460148FFF774BE90ED00E00146014802
:10491000FFF7CCBE90ED00E0F8B51446036871BB1C
:10492000D3F8042422F4C01242EAC442C3F8042497
:10493000234B022C1A6838D0032C39D0012C3AD1E1
:1049400042F040021A60FFF711FC4FF400360746B0
:104950001B4DA640FFF70AFCC01BB0F57A7F2DD88F
:10496000D5F8903036EA0303F4D14FF48853002091
:10497000D5F88020A3401343C5F88030F8BD012945
:10498000D3F8042806D122F4C01242EAC442C3F884
:104990000428CDE7520341BFD3F8042C22F4C012FF
:1049A00042EAC442C3F8042CC2E742F48062C9E779
:1049B00042F48042C6E742F00402C3E70120DDE78B
:1049C00000600058012930B54FF00205046810D18D
:1049D0008571D4F800190B43C4F80039C4F8C42910
:1049E000D4F8F03343F4060343F02003C4F8F03363
:1049F00030BD08444571D4F8001D0B43C4F8003D98
:104A0000C4F8C42DD4F8F03343F00643ECE770B497
:104A100015461E4699B9022301684371D1F8002555
:104A20003243C1F80025C1F8C455D1F8F03370BC49
:104A300043F4064343F02003C1F8F033704770BCE1
:104A4000FFF7C0BF022383710368D3F8042842F044
:104A50000042C3F80428D3F8002942F00802C3F842
:104A60000029704769B90368D3F8042442F0004272
:104A7000C3F80424D3F8002542F00802C3F8002547
:104A80007047012901D1FFF7DDBF0368D3F8042C7B
:104A900042F00042C3F8042CD3F8002D42F0080283
:104AA000C3F8002D70470000184B10B55A69C9B201
:104AB00042F480325A611A6942F001021A615A695D
:104AC00042F480325A6100221A615A615C695C6169
:104AD0001C6944F001041C611A615C6944F480346F
:104AE0005C611C6944F001041C615C69044344F48A
:104AF00080345C611A615A615869014359611969CE
:104B000041F0010119611A6110BD00BF0070005829
:104B100010B50446D8B103680E4A934208D002F19A
:104B20007042934204D04FF4A7710B48FDF7DEFDAD
:104B3000237913B9204610F025FD032300202371AB
:104B400001236071A071E071A060237110BD01208C
:104B5000FCE700BF00200058151E06342DE9F04187
:104B60000546FEB00C464FF4FC726846544917F0F7
:104B700045FC1DB901207EB0BDE8F081002CF9D0C4
:104B80002B68504A934208D002F17042934204D0FD
:104B900040F28B214C48FDF7A9FD2368B3F5807FD7
:104BA00007D0B3F5007F04D04FF423714648FDF7DA
:104BB0009DFD6368013B012B04D940F28D214248E1
:104BC000FDF794FDA3683E2B04D940F28E213E48A8
:104BD000FDF78CFD3D4B1A6822F001021A606168F6
:104BE00001291AD1226842F404121A671A6842F0A5
:104BF00001021A60D3F8802042F0B04242F404125D
:104C0000C3F880202268B2F5807FD3F8842054D185
:104C1000012908D142F01F0207E00229AAD1226827
:104C200042F49012E1E742F4F8520026284DC3F80E
:104C300084202B68254F23F002032B607E602B69B4
:104C4000012043F001032B61FFF792FA2E61D4F8A3
:104C50000880AB685DF8382023F4FE4343EA022362
:104C600043F02803AB60382108201602FFF71CFF31
:104C70001121E420FFF718FF0DEBC803D3F80480DF
:104C8000E3204FEA182146F48036FFF70DFF46F087
:104C90002806E3205FFA88F1FFF706FFAE6023687D
:104CA0000020B3F5807F0CBF07230F237B602B68A8
:104CB00043F002032B6068605DE742F4F852A9E715
:104CC00018CD023400200058151E0634006000582C
:104CD0000070005870B50D461446064608B901200C
:104CE00070BD002AFBD00368524A934208D002F1FB
:104CF0007042934204D04FF444714F48FDF7F6FCE4
:104D0000022D04D940F211314B48FDF7EFFC236826
:104D100033F4403304D040F212314748FDF7E6FC4B
:104D2000022D23681ED033F4403304D040F21631F4
:104D30004148FDF7DBFC2368B3F5803F02D0B3F5B3
:104D4000003F0FD1A368222B0CD0183B152B04D8A1
:104D50003A4A22FA03F3DA0704D440F21B31364808
:104D6000FDF7C4FC2368B3F5403F0FD06368222BE6
:104D70000CD0183B152B04D8304A22FA03F3DB077A
:104D800004D440F221312C48FDF7B0FC3379013BCB
:104D9000012B2ED82268B2F5403F45D0B2F5003F36
:104DA0002BD1002D9BD113466168B2F5803F43EAB9
:104DB0000103316802D0B2F5003F04D1022D2BD09F
:104DC000A26843EA0223EDB931681D4AD1F8040410
:104DD00002401A43C1F804243368D3F8042122F4B2
:104DE0008042C3F80421D3F8042242F00102C3F840
:104DF000042202230020337172E7022D14BF1346F0
:104E00000023D1E7012D07D1D1F804080C4A024054
:104E10001A43C1F80428DFE7D1F8042C22F03F023E
:104E20001343C1F8043CD7E7002D7FF458AF134675
:104E3000CAE700BF00200058151E0634C31B3C0003
:104E4000C0C0FCFF032970B506460D46144604D9C0
:104E50004FF472711548FDF749FC062C04D940F255
:104E6000C9311248FDF742FCF6B1032D08D8DFE83E
:104E700005F002090F150E4B240244F001041C61D9
:104E8000002070BD0A4B240244F001041C62F7E7C5
:104E9000074B240244F001041C63F1E7044B240295
:104EA00044F001041C64EBE70120EAE7151E063418
:104EB00000600058F8B50D461446064608B90120B2
:104EC000F8BD002AFBD00368474A934208D002F19C
:104ED0007042934204D040F202414448FDF706FC80
:104EE000022D04D940F203414048FDF7FFFB23683F
:104EF000032B04D940F204413C48FDF7F7FBBDB950
:104F0000711948793379C0B2022BDAB2D7D110F0D7
:104F1000FB00D4D14A713368276815BBD3F800254C
:104F200022F003023A43C3F8002501234B71C7E77F
:104F3000A3680A2B04D940F207412C48FDF7D6FBA1
:104F400063681A0702D1B3F5004F04D34FF48161AF
:104F50002648FDF7CBFB022DD2D1A368062BCFD973
:104F6000ADE7012DD4E9014626D1D3F80029204D23
:104F700022F003023A43C3F80029D3F8C02922F0F3
:104F80000F023243C3F8C029D3F8CC292A40224368
:104F9000C3F8CC29F21F012A06D8D3F8DC292A400D
:104FA0002243C3F8DC29C0E7092EBED1D3F8DC299F
:104FB0002A4042EA5402F4E7D3F8002D22F003021B
:104FC0003A43C3F8002DD3F8C02D22F00F0232432C
:104FD000C3F8C02DD3F8CC2D22F4FF4222F07F027B
:104FE0002243C3F8CC2DA0E700200058151E06343C
:104FF0000080FFFF70B50C46054608B9012070BD62
:105000000029FBD00B68013B042B04D940F23E4140
:105010005248FDF76BFB6369B3F5806F04D340F230
:105020003F414E48FDF762FB2369B3F5806F04D31F
:105030004FF488614948FDF759FBE3680F2B04D909
:1050400040F241414548FDF751FB6368072B04D905
:1050500040F242414148FDF749FBA368042B04D9C3
:1050600040F243413D48FDF741FBA3690F2B04D9B2
:1050700040F244413948FDF739FB2B79002BBDD074
:105080002A68536843F001035360FFF76FF8064640
:10509000FFF76CF8801BB0F57A7FAFD82B689A6861
:1050A000D207F5D562681A602268013A042A11D83D
:1050B000DFE802F0031C2A384600D4E9022142EA64
:1050C00001221A62A26912045A62D4E9042142EA56
:1050D00001429A625A68002022F001025A60D3F815
:1050E000F02342F02002C3F8F02388E7D4E902213C
:1050F00042EA01221A63A26912045A63D4E9042124
:1051000042EA01429A63E5E7D4E9022142EA012238
:105110001A64A26912045A64D4E9042142EA0142E1
:105120009A64D7E7D4E9022142EA01221A65A2690A
:1051300012045A65D4E9042142EA01429A65C9E79A
:10514000D4E9022142EA01221A66A26912045A66CF
:10515000D4E9042142EA01429A66BBE7151E0634EF
:105160002DE9F041022904460D4616461F46DDF89A
:10517000188004D94FF4C2611A48FDF7B7FA032E1C
:1051800004D940F211611748FDF7B0FA38F0040372
:1051900004D040F212611348FDF7A8FA1CB90126A9
:1051A0003046BDE8F0813A07F9D123686219D3F897
:1051B00004325279012AF2D1DB07F0D53246294672
:1051C0002046FFF7A9FB06460028E8D129462046DD
:1051D00043463A46FFF71BFC29462046FFF742FCB0
:1051E000DEE700BF151E06347047704770477047F2
:1051F000036870B5D3F8F86304467204D3F8F0532B
:1052000012D5690410D5D3F8F023002122F480428E
:10521000C3F8F023826842F0040282604FF48042B7
:10522000C3F8FC23FFF7E1FF72050AD56B0508D52B
:105230004FF48062236800212046C3F8FC2310F05D
:1052400081F9B00516D5A90514D52368D3F8002532
:10525000520707D5D3F8F02322F40642C3F8F0230F
:10526000012262714FF4007200212046C3F8FC2332
:1052700010F078F9F3050AD5E80508D54FF48072E7
:10528000236800212046C3F8FC23FFF7ADFF31045B
:1052900016D52A0414D523680021D3F8F02320461C
:1052A00022F40042C3F8F023A26842F00802A26090
:1052B0004FF40042C3F8FC2304236371FFF796FF09
:1052C000F3030AD5E80308D54FF48032236801219F
:1052D0002046C3F8FC23FFF787FF71030AD56A0352
:1052E00008D54FF48022236801212046C3F8FC230F
:1052F00010F028F9B30316D5A80314D52368D3F802
:105300000029510707D5D3F8F02322F40602C3F889
:10531000F0230122A2714FF4003201212046C3F88C
:10532000FC2310F01FF9320216D52B0214D5236886
:105330000121D3F8F023204622F40002C3F8F02321
:10534000A26842F01002A2604FF40002C3F8FC23EE
:105350000423A371FFF74AFFF0010AD5E90108D53C
:105360004FF08072236802212046C3F8FC23FFF728
:105370003BFF72010AD56B0108D54FF080622368AC
:1053800002212046C3F8FC2310F0DCF8B00116D54A
:10539000A90114D52368D3F8002D520707D5D3F8F7
:1053A000F02322F00642C3F8F0230122E2714FF00D
:1053B000007202212046C3F8FC2310F0D3F8002E1F
:1053C00016DA002D14DA23680221D3F8F0232046E0
:1053D00022F00042C3F8F023A26842F02002A2604B
:1053E0004FF00042C3F8FC230423E371FFF7FEFEF5
:1053F000700614D5690612D523682046D3F8F02329
:1054000022F04002C3F8F023A26842F00202A26038
:105410004022C3F8FC2304232371FFF7E8FEB20601
:1054200014D5AB0612D523682046D3F8F02322F01A
:105430002002C3F8F023A26842F00102A2602022F9
:10544000C3F8FC2304232371FFF7D1FE70BD70471E
:10545000704770477047704770477047B54B2DE9EC
:10546000F041D3F890600446B202D3F89480D3F8A8
:105470008050D3F884700DD5A9020BD5D3F88020C5
:1054800022F40012C3F880204FF40012C3F8002168
:10549000FFF7DEFF320715D52B0713D5236803214D
:1054A000D3F80035204613F0040FA24B1EBFD3F8EB
:1054B000802022F00802C3F880200822C3F80021CF
:1054C000FFF7CBFF700715D5690713D523680221B5
:1054D000D3F80035204613F0040F964B1EBFD3F8C7
:1054E000802022F00402C3F880200422C3F80021A7
:1054F000FFF7B3FFB20715D5AB0713D5236801211A
:10550000D3F80035204613F0040F8A4B1EBFD3F8A2
:10551000802022F00202C3F880200222C3F800217A
:10552000FFF79BFFF00715D5E90713D52368002186
:10553000D3F80035204613F0040F7E4B1EBFD3F87E
:10554000802022F00102C3F880200122C3F800214C
:10555000FFF783FF320416D52B0414D523680321EB
:10556000D3F80035204613F0040F724B1EBFD3F85A
:10557000802022F40042C3F880204FF40042C3F898
:105580000021FFF767FF700416D5690414D523685E
:105590000221D3F80035204613F0040F654B1EBFDF
:1055A000D3F8802022F48042C3F880204FF4804258
:1055B000C3F80021FFF74EFFB20416D5AB0414D593
:1055C00023680121D3F80035204613F0040F594B0E
:1055D0001EBFD3F8802022F40052C3F880204FF47D
:1055E0000052C3F80021FFF735FFF00416D5E90497
:1055F00014D523680021D3F80035204613F0040F9A
:105600004C4B1EBFD3F8802022F48052C3F8802078
:105610004FF48052C3F80021FFF71CFF320516D566
:105620002B0514D523680321D3F80035204613F049
:10563000040F404B1EBFD3F8802022F40062C3F851
:1056400080204FF40062C3F80021FFF704FF7005CB
:1056500016D5690514D523680221D3F800352046F4
:1056600013F0040F334B1EBFD3F8802022F4806266
:10567000C3F880204FF48062C3F80021FFF7EBFEEF
:10568000B20516D5AB0514D523680121D3F8003532
:10569000204613F0040F274B1EBFD3F8802022F4BE
:1056A0000072C3F880204FF40072C3F80021FFF7A6
:1056B000D2FEF00516D5E90514D523680021D3F8EC
:1056C0000035204613F0040F1A4B1EBFD3F880207C
:1056D00022F48072C3F880204FF48072C3F8002156
:1056E000FFF7B9FE320615D52B0613D52368032123
:1056F000D3F80035204613F0040F0E4B1EBFD3F82D
:10570000802022F08002C3F880208022C3F800218C
:10571000FFF7A2FE700619D5690617D52368022186
:10572000D3F80035204613F0040F024B18BFD3F80E
:10573000802001E0006000581CBF22F04002C3F846
:1057400080204022C3F80021FFF786FEB20615D55F
:10575000AB0613D523680121D3F80035204613F09A
:10576000040FB94B1EBFD3F8802022F02002C3F8EB
:1057700080202022C3F80021FFF76EFEF00615D529
:10578000E90613D523680021D3F80035204613F02D
:10579000040FAD4B1EBFD3F8802022F01002C3F8D7
:1057A00080201022C3F80021FFF756FE720013D5A7
:1057B0006B0011D5A44B2046D3F8802022F0804204
:1057C000C3F880204FF08042C3F80021A36843F45F
:1057D0008073A360FFF70BFDB00013D5A90011D5AE
:1057E000994B2046D3F8802022F00052C3F8802045
:1057F0004FF00052C3F80021A36843F40073A36084
:10580000FFF7F5FCF20013D5EB0011D58E4B2046C7
:10581000D3F8802022F08052C3F880204FF08052CD
:10582000C3F80021A36843F48063A360FFF7DFFCA3
:10583000300113D5290111D5834B2046D3F88020A0
:1058400022F00062C3F880204FF00062C3F800210C
:10585000A36843F40063A360FFF7C9FC720113D58A
:105860006B0111D5784B2046D3F8802022F080625E
:10587000C3F880204FF08062C3F80021A36843F48E
:105880008053A360FFF7B3FCB00113D5A90111D574
:105890006D4B2046D3F8802022F00072C3F88020A0
:1058A0004FF00072C3F80021A36843F40053A360D3
:1058B000FFF79DFCF20113D5EB0111D5624B204699
:1058C000D3F8802022F08072C3F880204FF08072DD
:1058D000C3F80021A36843F48043A360FFF787FC6B
:1058E00018F0010F14D0F80712D50121564B2046AD
:1058F000D3F8802022F00102C3F88020C3F80411FD
:10590000A36843F40023A36004232371FFF79FFDE2
:1059100018F0020F15D0B90713D54B4B0121D3F85E
:105920008020204622F00202C3F880200222C3F821
:105930000421A36843F48023A36004232371FFF7A9
:1059400086FD18F0040F13D07A0711D53E4B0121C4
:10595000D3F88020204622F00402C3F880200422DD
:10596000C3F80421A36843F40033A360FFF76FFD7D
:1059700018F0080F13D03B0711D5334B0121D3F892
:105980008020204622F00802C3F880200822C3F8B5
:105990000421A36843F48033A360FFF758FD18F097
:1059A000100F13D0F80611D5274B0121D3F8802012
:1059B000204622F01002C3F880201022C3F80421F0
:1059C000A36843F40043A360FFF741FD18F4807F10
:1059D00016D0F90514D51C4B0221D3F8802020469F
:1059E00022F48072C3F880204FF48072C3F804213F
:1059F000A36843F40023A36004232371FFF727FD6A
:105A000018F4007F16D0BA0514D50F4B0221D3F835
:105A10008020204622F40072C3F880204FF40072E8
:105A2000C3F80421A36843F48023A36004232371F3
:105A3000FFF70DFD18F4806F17D07B0515D5024BCD
:105A40000221D3F8802001E000600058204622F4B3
:105A50008062C3F880204FF48062C3F80421A368F9
:105A600043F40033A360FFF7F2FC18F4006F14D086
:105A7000380512D51F4B0221D3F88020204622F48E
:105A80000062C3F880204FF40062C3F80421A368C9
:105A900043F48033A360FFF7DAFC18F4805F14D07E
:105AA000F90412D5134B0221D3F88020204622F4AA
:105AB0008052C3F880204FF48052C3F80421A368B9
:105AC00043F40043A360FFF7C2FCF2030FD5EB03DE
:105AD0000DD5084B2046D3F8802022F48032C3F83D
