:02000004710089
:100000001B2A573A464478BA059D46BB30B7673B32
:10001000059DC63A39AF0C3BEF0F36BA7A56BEBAD9
:10002000059DC63A059D46B9A670DF3BAE6884B90A
:1000300030B7E7B97A56BEBA35333A3B7818D5BBF4
:10004000F38B08BBC2B7ABBBAC2A9BBBC4F5143A5D
:1000500090E34EBBEF0F363AAE6804BAA670DF3AB3
:10006000059D463A091919BBDA8225BA39AF8C3B8E
:1000700064C92DBBEF0F363AEF0FB63AAE68043ABB
:10008000517A86BB30B767BAAC2A9BBB64C9ADBA9C
:10009000AE6804B990E34E3B7A563EBB9221B83B22
:1000A0004F3C1DBB39AF0C3B1B2AD73A30B7E73961
:1000B000AE6884B8059D463A059D463BDA82A53A6E
:1000C00090E3CEBA4644783A4644F83A1B2A573A67
:1000D000945F21BBF38B083B1B2AD73A059DC6B919
:1000E000AE6884B9694580BBDA82A53ADA82A5BADE
:1000F000DA82253A7A56BEBAC4F5143B1B2A573B1E
:1001000000000000AE6804BA464478BABBFDEF3A7E
:10011000C2B7ABBBDA82253A1FA629BBA670DF3A6D
:10012000BBFDEF3AC4F514BB35333ABBDA82253B4D
:10013000EF0FB6BA4F3C9DBAA670DFBAAE688439ED
:100140004644F83A0B57823B30B767BAA6705FBB9C
:10015000F38B083BDA82A53939AF8CBAC4F5143B6E
:10016000A670DFBA1FA6A93BA670DF3A39AF8CBADA
:10017000059DC6B9059DC63AAE68043AA670DFBAB9
:10018000EF0F36BBAE688439AAEC313BDA82A5BAF0
:10019000AE6884B8059DC6B9694580BBAE6804BA2F
:1001A000AE6804BA64C9AD3AC4F5943A945F213B91
:1001B00030B7E7B964C92D3BC4F514BBDA8225BB5F
:1001C00030B7673A6945003B464478BA0000000002
:1001D0004F3C1D3B7A56BE3A059D463AEF0FB6BAE4
:1001E000464478BA76DA6B3BAE680439EF0FB63A1C
:1001F0001B2AD73A7A56BEBA35333A3BDA82253AC9
:100200001B2AD73AEF0F363A0919193B00000000B4
:10021000059D4639DA82A53964C9ADBA7ED2103B54
:10022000EF0FB63B059D463A7A563E3BAE6884B822
:10023000BBFDEF3A059DC63A059DC63A90E34E3B9D
:100240006945003B4F3C9D3ABD3BD93B76DA6B3B61
:10025000059DC63A90E3CEBA39AF0C3BAE6884BA7E
:1002600039AF8C3B4AC04A3B4644783A35333ABBB7
:10027000059DC63AEF0F36BAAE6804BAAE6804B947
:10028000A6705FBBDA82A53A059D46B90000000062
:1002900030B7673ADCC08EBBC4F5143BAE68843817
:1002A000C4F5143B4644783B39AF8C3A90E34E3B5F
:1002B000DA82A5BA1B2AD73A059D463A30B7E7B984
:1002C00090E3CE3A4644783AAE6804BB1B2A57BB4B
:1002D000604D5B3B7ED2103B90E3CEBA694580BB5C
:1002E000059D463A30B7673B945FA1BB4644F8BAD8
:1002F000C4F514BA30B7E7BABBFDEFBA945F21BBBF
:10030000059DC6BAAE6884B964C92DBB694580BB7A
:100310007A56BE3A1B2A57BAAE68043B1B2A57BA14
:10032000AE6884B9AE6804BAAE6884B8059DC6BA32
:10033000AE68843A4AC04A3B4F3C1D3B0000000077
:1003400090E3CE3A30B7E7396945003B39AF0C3B13
:100350008C677C3B76DA6BBB1FA629BB30B7E7BA4C
:100360004F3C9D3A1B2AD7BA7A563EBB694580BBA3
:1003700021E4923BAE68843ADA82253ADA82A5B962
:10038000AE6804B91FA6293B4F3C9D3A4F3C9D3AAD
:10039000C079423B30B7673AAE68043930B767BAC4
:1003A0001FA6293B059D46BA1B2AD7BAEF0FB63ABE
:1003B0000919193B059D463AAE68843A464478BA15
:1003C0004F3C9D3A660797BBA670DF3BAE6884380A
:1003D000AE6804BB39AF8CBA945F213B059D46BA29
:1003E00090E3CEBAAE6884B939AF8C3AAE68843A3D
:1003F0001FA629BBAAEC31BB059D46397A56BE3AE9
:100400007C94A73B000000001B2A57BA4F3C9D3A42
:10041000604D5BBB30B7E73AC4F5143B90E3CE3A8E
:10042000AE6804394644783A39AF8C3A059D463B6C
:10043000AE6884B9AAEC31BBA670DFBA0121F4BB67
:10044000DA82A539059DC63B30B767BABBFDEF3AE6
:10045000BBFDEFBA1FA6293BAE680439EB93633BA3
:10046000000000004644F83AAAEC31BB4644783A12
:100470004F3C9DBB464478BA969D8A3BEF0F36BBF6
:10048000517A863BEB93633B1FA629BBAAEC313B19
:1004900039AF8CBAAE6804397A56BE3AAE6884BABF
:1004A000059D463B059DC639BBFDEF3A4F3C1DBB44
:1004B000059DC639059DC63ADA82A539AAEC313BBD
:1004C00035333ABB7A56BEBADD5F03BC1FA6293B63
:1004D00035333A3B4F3C9D3A64C9AD3AC4F5143BC1
:1004E000BBFD6F3BAE68043B1FA629BB4F3C9DBACA
:1004F00039AF8C3B059D463A64C9ADBADA82253ADC
:10050000C4F5143A059D46BA90E34EBBDA82A5398C
:10051000AE6804B94644783AAE6884B84F3C9DBA98
:10052000AAEC31BBF14D9F3BEB93633BF38B883BD4
:100530001B2AD7BAC4F5943A4644F83A059D463A80
:100540007A563E3BAE6884B9AE6884B9AE68043A68
:10055000059D4639AE68043B30B7E73A1B2A57BAC7
:100560007A56BE3AD744BC3B30B7E7BADA82A5B96F
:1005700039AF8C3A4F3C1DBB30B7E73AAE6884BA0E
:10058000059DC6B9AE6884B8DA82A5394644F8BA82
:1005900039AF0C3BDA82253B7ED210BB30B767BA4D
:1005A000604D5B3BAE688439AE680439C2B7AB3B83
:1005B000AE68043930B7E73A4F3C1DBBDA82A5B9C3
:1005C0006945003B059D46B9A670DFBAF14D9F3BDA
:1005D00064C92DBBC4F5143BC4F514BB035FDD3BFC
:1005E0001B2A573AAAEC31BB517A863BDA8225BBEB
:1005F0000919993B4644783AAE6804BABBFDEFBA94
:10060000DA8225BBEF0F36BA4644F8BAAE688438B2
:10061000DA82A539AE6884B87A56BE3ADA82A5BACB
:100620001B2AD73A39AF8CBA969D8ABBC4F514BA47
:10063000AE688439AAEC31BB90E3CEBAF38B083BA9
:10064000694500BB4F3C9D3A30B7E7B9BBFDEF3A77
:1006500076DA6BBB4AC04A3B4F3C9DBA4AC04ABBA4
:10066000AE6804B9059D463A0121743BDA82A5BA09
:10067000059DC6B939AF0C3B4DFEB33B90E3CE3A76
:10068000AAECB13BC4F594BAD744BCBB90E3CEBA54
:100690007ED210BB4F3C9DBA4F3C9DBAF38B883B3A
:1006A000DA82A5391B2AD7BAA6705F3BDCC08EBBA5
:1006B0007ED210BBEF0F363ADA82253B00000000F5
:1006C0001B2AD73A694500BBBBFD6FBB945F213B3A
:1006D000EF0FB63A1FA6293B059DC6B9DA8225BAA7
:1006E000DA82A539AE68043A64C92D3B4882E13B01
:1006F000C4F5943AAE6804B97A56BEBAA6705F3BA8
:10070000AE6804B91B2A573B945F21BB7ED2103BD5
:10071000DA82A5B97ED210BB90E34E3BF38B08BBC7
:100720008C677CBBC4F514BB7A56BE3AAE68843A7B
:10073000059D463939AF8CBA4644F83AC4F5143BA6
:100740007A56BEBB30B767BAEF0FB6BA64C9ADBA56
:10075000AAEC31BB76DA6BBBAE68843A7C94A7BB5B
:100760007A56BEBAAE6804B91B2AD73AAE68843A44
:100770007ED2103BAE68043BA670DF3A0919193BE4
:1007800030B767BA76DA6B3B694500BB059D46B961
:1007900030B767BAEF0F36BA21E492BB07DBAF3B45
:1007A0007A56BE3AAE68043AD50653BB969D8A3B4C
:1007B000BBFD6FBB7ED210BBAE6884B8059D4639C9
:1007C000059DC6B9AE6804BB059DC6B9A670DFBA63
:1007D000D50653BBDA8225BAF38B083B30B767BA2C
:1007E00000000000945F213BBBFDEFBAAE6884BA05
:1007F000BBFDEF3A059D46BA1B2A573B35333A3BC2
:100800007C94A7BBDA82A5B930B7E73AAE6804BAE0
:100810000121743B76DA6BBB4644F83AEF0F36BAE7
:10082000091919BB1FA6293B4644F8BA000000006D
:10083000EF0FB6BA30B7673A1FA629BBAE68843946
:10084000DA82A5B9059D46BBDA82A5BA604DDBBB4D
:100850003771A33BEF0F363B4F3C9D3BC07942BB0A
:10086000059D46B94AC04ABBC4F594BA4644783A95
:10087000059DC639694500BB76DA6B3B059D463A56
:10088000464478BA945F21BBBBFD6FBBAE6804BA27
:10089000D50653BB4644F8BA059DC63AEF0F363A23
:1008A000EF0FB63A4644783A35333ABBDA8225BA86
:1008B000059DC6B9EF0F363A059DC63BC4F5143AFF
:1008C000059DC63935333A3BBBFD6FBB1B2AD7BAF2
:1008D000A6705FBB464478BBAE6804BB1B2AD73A00
:1008E0001B2AD7BA4F3C9D3A1FA6293BDA8225BA6C
:1008F000AE68843A9221B8BB1B2A57BB39AF8C3AF9
:10090000C079423B7ED210BBF38B08BB059DC63A33
:10091000012174BBC07942BB059DC63A00000000AE
:10092000059D46B9059DC6B9DA82A539F38B08BB8A
:100930000121743B4F3C9DBA0121743BAE68843960
:10094000C4F5143A4644783A76DA6BBB30B7E7B967
:10095000694500BB4644F8BA4F3C9D3A059DC6BA6E
:10096000AAEC31BB90E3CE3A7ED290BBF38B88BB2E
:100970006945803B091999BB7A56BE3AA670DF3AA1
:10098000AE6804B9A8AEC8BB0121743B0919193B74
:100990000919193BBBFDEF3A945F213BDA82A53A76
:1009A0000919193B4F3C1DBB39AF0C3BAE68843A6B
:1009B000059D46B9C4F5943A64C92D3BAE6804BAA6
:1009C000059DC63A4F3C9D3B30B7673A464478BADE
:1009D000BBFDEFBAF38B083BAE680439F38B883B61
:1009E00021E4923B3533BABB39AF0C3BAE68843857
:1009F000694500BBDA82A5B9C4F5143AA670DF3A9E
:100A0000DA82253AAE6884B800000000059DC63A37
:100A1000AAEC31BBAE6884BA7ED2103BAE6884B813
:100A200039AF8CBAAE68843A945F21BBEB9363BB59
:100A3000059D4639059D463AC4F5143B4644F8BA2F
:100A4000604D5B3BEF0F363AEF0F36BBA6705F3B56
:100A5000DCC08EBB059DC639D506533B30B7E7B920
:100A60001B2A57BAAE6884BA64C9AD3AC4F594BAC1
:100A7000694500BB000000004DFEB33BDA82253B18
:100A8000694500BBDA82A53A4644783A059D463B63
:100A900064C9ADBBC4F514BB7A56BE3ADA82A53B35
:100AA000DA8225BABBFDEF3A30B767BAEF0FB63A34
:100AB000059D46B9BBFDEFBAAC2A9BBB35333ABBAB
:100AC000694500BBDA82A5BAC2B7ABBB30B7E7BA9B
:100AD0004DFEB3BBC4F514BA4F3C1DBB30B7E7B9EC
:100AE00039AF0C3B7ED210BBAE6804BBAE68043994
:100AF000DA82253AA670DF3A30B7673AEF0F36BB95
:100B0000059DC6BA30B767BA4F3C9DBA30B7E7BA51
:100B100090E3CEBA90E34E3B945F21BBEF0F363BA0
:100B2000059DC639BBFD6F3B059DC63A464478BA64
:100B300039AF8C3AEF0F363A90E3CEBA64C9ADBA0A
:100B4000A670DF3A64C92DBBAE6804B9EF0FB63AA0
:100B5000012174BBA6705FBBEF0F36BAA6705F3B76
:100B6000AAEC31BB64C9ADBAEF0F36BB4F3C9DBA9E
:100B70004F3C9DBA35333ABB1B2A57BAF38B083B1F
:100B8000AE688438AE68043BC4F514BA30B7E7B930
:100B9000DCC08E3B39AF8CBAEB93633BC4F5143A9F
:100BA00039AF0C3B604D5BBBAC2A9BBB90E34E3B2B
:100BB0001B2A573B30B7673A30B767BA091919BBD8
:100BC000BBFDEF3A4F3C9D3A8C677CBBEF0F36BACA
:100BD000AE688438AE6884384644F83A90E3CEBABA
:100BE000DA8225BB059DC6B9C2B7AB3B464478BA8D
:100BF000BBFDEFBA76DA6BBBBBFD6FBBEB93633B20
:100C0000AE6884BAC4F514BB6607973BC4F594BAC2
:100C10004644783BAE6884B839AF0CBBDCC08EBBB1
:100C20007A563E3BEF0F363A00000000969D8A3B15
:100C3000059DC6B91B2A57BAAE6884BBDA82253B2C
:100C40008C677CBBC4F514BAEF0FB6BADA82A5394B
:100C5000AE6804BABBFDEF3AC4F514BB4644783B1A
:100C6000C4F514BBAE6804BADA82A5B9945F213B1F
:100C700030B7673AAE6884BB90E3CE3A1D68C03B9C
:100C80000919993BA670DF3A21E492BB90E34E3BF1
:100C9000059DC63A30B7E7B96945003B30B7E7393B
:100CA000DA8225BADA82A53B6945003B604D5BBB21
:100CB000C4F5943AAE6884B830B7E7B9464478BA18
:100CC0007A56BEBA7A563E3BDA82253AEB93633BBC
:100CD000059D463B464478BBAAEC313BC4F5143B2A
:100CE000A670DFBAEF0F363BA670DF3A64C9AD3AA3
:100CF000059DC6B93771A33B30B7E739DA82253A8B
:100D000039AF0CBB059DC6B9DA8225BB1FA6293BAE
:100D10007A563EBBEF0F36BADA82253AAE68843A8D
:100D200030B7E7B964C9AD3A4F3C9DBB8C677C3B9B
:100D3000AE68843ADCC08E3BEF0FB63AF38B08BB4B
:100D4000DA82A5B91B2AD73AA670DF3A517A863BD8
:100D5000059D46B9DA82A5BA1FA6293B39AF0C3BDF
:100D6000EF0F363A8C677C3BC4F5143A9221B83BBE
:100D70001FA6293BDA8225BA30B7E739059DC63A66
:100D800000000000945F213B4F3C9D3ADA82A5BAF7
:100D9000AE68043990E3CE3A091999BBDA8225BBD3
:100DA000BBFDEF3AAE68043A945FA13B39AF0CBB90
:100DB000C4F5143A091919BB059D4639AE68043BC0
:100DC000C4F594BADA82A53AEF0F363A39AF0CBBC4
:100DD000C4F5143A694500BBEF0FB63AC07942BB7F
:100DE000AE680439059DC639C079423BD744BC3B47
:100DF000AE688439A670DF3AD506533BDA82A5BACD
:100E00001FA629BBDA82A53A059DC6B9C4F5143BD5
:100E1000059D46BA8C677C3BD506533BEF0FB63A2F
:100E2000059DC63A059DC639059DC63A4644783AA1
:100E3000C4F5943AAE688439EF0F363A30B767BAE2
:100E400030B7E73AC4F594BA64C92D3B64C9AD3AEA
:100E5000059D46BB059DC6BAAE68043A64C92DBB64
:100E6000969D8A3B517A863B6945803B4F3C1DBB32
:100E7000DA82A5BADCC08E3B4DFEB33B059D4639F8
:100E80006945803B7ED290BBF38B88BB30B7E7BA15
:100E9000059D46B9C4F5943A059D46B9BBFDEFBB27
:100EA0001B2AD73AAE6884BAC07942BBEB9363BBC6
:100EB00030B7E739059DC63A1B2A573AAAEC313BB1
:100EC000DA82A5BAAE688439AE6884BADA82A5BA85
:100ED000AAEC313B4F3C1DBB30B7E7BA64C9AD3B10
:100EE0007A56BE3A30B767BA0919193BEF0F36BACE
:100EF000945F21BB1B2A573A7ED2103BAE688439DF
:100F0000EF47CC3B57DA373C5BC884BCB98467BC3D
:100F1000F23B2ABC5ACE15BCBF6C233BF42F883B56
:100F20008C9D9C3C5ACE15BCBC78C5BCF23B2ABCFF
:100F3000EF47CC3B5ACE15BC87B560BCF23B2A3D8F
:100F40001E23F5BB51F27B3C57DA373C54E6593A45
:100F500027FF0EBCF42F08BCF42F88BBF42F083BEE
:100F6000B98467BCBF6C23BB54E6D9BAF23B2ABC38
:100F7000BF6CA3BA5ACE153C58D4A6BCF42F88BB7C
:100F80005ACE953BBF6CA3BBBF6CA33B8AA93EBBAB
:100F90001E2375BC8AA93EBC57DA373CBF6CA3BA86
:100FA000F23BAA3CC06692BC5ACE953BF23B2A3C2F
:100FB0001E23753B1E23F5BBBF6CA3BA1E2375BC55
:100FC000F23B2ABCF42F883C1E23F53B1E23F53B45
:100FD00051F2FB3CBF6C23BC54E6593A8C9D1CBCBF
:100FE000BF6CA33C8AA9BE3B55E0C8BCBC7845BCDD
:100FF00087B5603C5ACE153C51F2FBBC1E23F5BBB5
:10100000B984E73BC26081BC8AA93E3CC06692BC01
:101010001E2375BCF23B2ABC8C9D1CBC240B313CAE
:10102000F42F883BBF6CA33ABF6C233BBB7ED6BC7E
:101030008BA3ADBCBF6CA33AF42F08BC8AA93E3B7E
:10104000BF6CA33B53ECEABC240BB1BB2311C2BC65
:10105000240BB1BC54E6D9BB58D4A63C88AFCFBC56
:1010600027FF0EBC1E23F5BC54E659BBEA59FF3CD2
:1010700054E659BAEF47CCBB000000008AA9BEBBBA
:1010800054E6D9B954E6D939240BB1BBF42F883BC7
:1010900054E6D93954E659BC54E659BA8BA3AD3C51
:1010A00054E6D9BA8C9D1C3CB984E7BBBF6CA3BB8A
:1010B00054E6593A1E23753BEF47CC3B54E6593A68
:1010C000240BB1BCBC7845BCEF474C3C57DA37BC6D
:1010D0008AA9BEBBF42F083BC066923C1E23753B19
:1010E00027FF0EBC5ACE153CBF6C233BC260813C2F
:1010F00054E6593BEF47CC3C54E6D9B98AA93EBBEC
:1011000054E6D9B9EF474C3C5ACE953B8AA93EBC30
:10111000BF6CA3BA5ACE95BB54E6D93B8AA93EBB55
:10112000211753BCEC536EBC00000000EF474C3C51
:10113000BF6C23BC8E978BBC54E6D939F42F88BB87
:10114000BC7845BCBF6CA33AC26001BC2117D3BCBC
:10115000BF6CA33AF23B2ABC240B313C1E23753CE6
:10116000EF47CCBC5ACE15BC1E23753B54E659BB89
:101170008AA93E3B8AA93E3CF42F883BEF47CC3BF3
:101180001E23F53B240BB13B54E6D9390000000087
:101190001E23F53B54E659BAB984E73B27FF0EBC42
:1011A000C260813C0000000051F27BBC8AA9BEBC39
:1011B000240BB1BB54E6D9BA54E6593BBF6CA3BC6F
:1011C00054E659BA54E6D9BAF23B2A3CC260013C13
:1011D0002311C2BCBF6CA3BBEF47CCBBEF474C3C59
:1011E000BE72B4BC1E2375BB8732583DEF474CBC62
:1011F0005ACE15BC54E6D93A54E6D939BF6C233CD3
:10120000BF6CA33C54E659BB54E6593C240BB13B9C
:1012100058D4A6BC1E23F5BBF33599BC54E659BA85
:101220001E2375BC1E23753B54E6593AF42F083C27
:101230008AA93E3C8AA93EBCB984E7BBC260013C96
:1012400057DA37BC54E6D93954E6D939B984673C02
:101250002311C2BCB984E7BBBC78453C5ACE95BCCF
:10126000201DE4BCEC536E3CF041BB3CBF6CA3BB07
:10127000C1E309BD54E659BB1E23753BF42F08BCDE
:101280001E23F53CBF6C23BC5ACE153CEC536EBC00
:1012900054E6D93BBF6CA3BBC260013C211753BCD1
:1012A00054E6D9BB8AA93E3BC260813C1E23753BF4
:1012B0005ACE153C8AA9BEBBBF6CA33A8C9D1C3C80
:1012C000BC7845BC5ACE95BB8AA9BEBB5ACE15BCCC
:1012D0008AA9BE3B8C9D1CBC8AA9BE3C51F27B3CBA
:1012E000BF6C23BBBF6CA3BBBE72B43C54E6D9B980
:1012F00054E6D9BBB984673C54E6D93AB98467BC93
:10130000BF6CA3BC0000000027FF8EBCF42F083C7C
:10131000B984E7BB54E659BB51F27BBC54E6593B58
:101320005ACE953B58D4A63CF42F883B2311C2BC1F
:10133000EF47CCBC54E6593C58D4A63C57DAB7BC6E
:101340001E2375BBF42F88BBF42F083BBF6CA3BAD8
:10135000EF47CCBBBF6C23BBF42F883BC260013C82
:1013600054E6D9BA240B31BCB984673C2117D3BCED
:10137000BF6C233B5ACE953B27FF0EBCF42F083C95
:10138000EF47CCBB2605A0BC8AA9BE3BF42F08BB07
:101390001E23753B240BB1BB1E2375BC1E2375BCDD
:1013A000BF6CA33A5ACE95BB8AA93E3BBF6C233B88
:1013B0008AA9BEBBEF47CCBB240BB1BB1E23F5BB38
:1013C000F42F083B5ACE153C8AA9BEBBEF47CC3B55
:1013D000F23B2ABC1E2375BC54E6D9BA54E6D93A6E
:1013E000240BB1BB5ACE953B57DA37BCF42F083CDF
:1013F0005ACE95BBF42F88BB27FF0E3C5ACE95BC26
:1014000054E659BABF6CA3BB27FF8EBCB98467BC36
:10141000BF6C23BCF23B2ABC54E6D9B9BF6C23BCD9
:10142000C260013C27FF0EBCF23B2A3C54E6593C0B
:101430008AA9BEBB5ACE953C54E6D9B98BA3ADBCA4
:101440005ACE153CF42F083B1E2375BB8AA93E3BA0
:10145000C066923CF335993CBF6C233C1E23753B20
:1014600054E6593AB984E73B54E6D9B927FF8EBC14
:10147000F42F08BCBF6CA3BB8E978BBC57DA37BC6C
:10148000F42F883BF42F88BBF42F083CEF47CCBBEC
:10149000BF6C233B000000008C9D1CBC54E6D9B9F6
:1014A000BF6C23BB54E659BBF23BAA3C54E6D93A85
:1014B00054E6D93BB984E7BB54E6593B8AA93EBB05
:1014C00054E6D93900000000EF474CBCBF6C23BD87
:1014D0001E23F53B5ACE95BB54E659BCC26081BC75
:1014E000B984E73BC260813C5BC804BDF42F083B74
:1014F0002311C2BCBF6CA33BB984673C57DA373CAD
:10150000BF6CA3BB54E659BB54E6D9BB54E659BBE8
:1015100054E6D93A0000000027FF8EBC54E6D93BC0
:1015200054E6593BEC536E3C54E6593BB984E7BB57
:10153000240BB1BB27FF8E3CBF6C23BCBF6CA3BB8D
:1015400027FF0E3C1E23F53BBF6C233B5ACE95BCB8
:10155000F42F88BC54E6D9BA240BB1BBF42F883BD6
:10156000F42F083CEF47CCBBBF6C23BC240BB13B32
:1015700054E6D9395ACE95BB54E6D939F42F083CF4
:101580002117D3BC51F27B3CF23B2A3CF42F883B21
:10159000B98467BCBC7845BC57DA37BC8AA9BEBBE6
:1015A00054E6D93CB98467BC27FF0EBC54E6D9B9D0
:1015B0008AA93EBB5ACE953B5BC8843C0000000024
:1015C00054E659BCBF6CA3BBF335993C1E2375BBD5
:1015D00027FF8EBC8AA9BE3B54E6D9BB1E2375BB30
:1015E00054E6593A54E6D93A57DA37BCB88AF8BCC7
:1015F0001E2375BC8AA9BE3B54E6D93A2605A0BC79
:1016000054E6D93A240BB1BCBF6CA33A8AA93EBBBD
:1016100054E659BABF6CA33B57DAB7BCC26001BCF1
:10162000BF6CA3BABF6CA3BB54E6D9BA54E6D93990
:10163000B984E73B54E6D93BF23BAABC54E6D9B99E
:1016400054E6593B8AA9BE3B240BB1BBBF6CA3BA7D
:101650005BC8843CF42F08BB211753BC87B5603CA2
:10166000F42F083C1E2375BB1E23F5BBF42F083B4B
:10167000EF47CCBB54E6D9BAB984673C5ACE95BB88
:10168000EF47CCBB5ACE95BB54E6D9BBB984E7BB78
:10169000EA59FF3CEF47CC3B54E659BABE72B4BCA2
:1016A000BF6CA33A54E6D9BA8E978BBCBC7845BCC4
:1016B00054E6D93A240BB1BB240BB1BB8AA93EBB7B
:1016C000F42F08BCB984E73B8AA9BEBB8AA9BEBB7C
:1016D000BC78453C87B5603C1E23753B1E2375BB1B
:1016E00000000000F42F083B5ACE15BC5ACE95BB23
:1016F0008AA93E3BF335993CBF6CA33C0000000037
:10170000F42F883B8AA9BEBBBC78453C57DA373CEE
:101710008C9D9CBCBF6CA3BABF6CA3BA8AA93EBC0B
:101720001E2375BC58D4A6BCBF6C233B5ACE95BBB8
:1017300000000000C26001BC240BB13B55E0C83C76
:101740008AA93E3BF42F083B27FF0EBC27FF0E3C27
:10175000F23BAABCEF47CC3B1E2375BBBF6CA3BBBF
:101760005ACE15BC240BB13C8C9D1C3C54E659BB95
:10177000BF6CA3BCBF6CA3BA87B5E0BC240BB13B64
:1017800027FF8E3C2117533C54E6593C5ACE153C5A
:10179000EC536EBCF42F88BB2605A0BC1E23F5BB02
:1017A000BC78453C240BB13B5ACE15BCC26001BC91
:1017B00054E6D93A1E23F5BB1E23F5BB54E6D93AAD
:1017C00087B560BC8E978B3CF42F883B240BB1BC53
:1017D00054E6D93A54E6593B1E23753BEC536E3C14
:1017E000BF6C233B5ACE953B57DA37BCF42F883B6E
:1017F000EC536EBC2605A0BCBF6CA3BA8E978BBC05
:1018000054E6D9395ACE95BBF42F883CBF6CA33A25
:10181000C260813C54E6D9BA240B313C8AA9BE3B54
:10182000BF6C23BB5ACE953BEC536E3C54E6D9B902
:10183000201DE4BCBF6CA33B211753BC5ACE953B83
:10184000BC78C53C8AA93EBC240B31BCBF6C233B91
:1018500000000000240B31BC54E659BAEF47CCBB62
:10186000BF6C23BBF42F083BED4DDD3CF33599BC39
:10187000F42F88BBB88AF83C1E2375BB5ACE15BC22
:101880001E23753BBE72B43C240BB1BC54E659BB5D
:101890008BA3ADBC5ACE15BC5ACE953C54E659BB71
:1018A000240B31BC27FF0E3C5ACE15BC54E659BA66
:1018B000BC78453CEF47CCBB1E2375BB27FF0EBC55
:1018C0002311C2BC54E6593BBF6C23BBF42F08BCA8
:1018D0001E2375BB8E978B3C1E23753B00000000BA
:1018E000EF47CCBB8AA9BE3B54E6D93B00000000C1
:1018F000EF47CC3B1E23F5BB54E6593BF42F08BC05
:10190000C06612BDBF6CA33A27FF0EBC211753BCA3
:10191000F33599BCC260013C54E6D9391E23F53B2E
:1019200054E6D9BA54E6593BF42F083B27FF0EBCC6
:101930002117533CEF474CBC1E2375BC54E659BAE3
:10194000BF6C233B54E6D9BA8BA3ADBCBF6CA3BC20
:10195000B984E73C54E6593B54E6D93B2117533C44
:101960008AA9BEBB8AA93E3B54E6D93957DAB73CAF
:10197000EF474C3CBF6C233B54E6D9BC57DAB7BCAD
:101980008AA9BEBB240BB13BF42F883C54E6D9BCDA
:101990008AA93E3C2117533C87B5603C54E659BCAC
:1019A0008AA9BE3B57DAB7BCB984E73B54E6593B3A
:1019B00054E6D93B5ACE95BBBF6CA33B1E23F53BE7
:1019C0005ACE153C00000000BF6C233BEF47CC3BD8
:1019D0008AA93EBC8AA9BE3BBF6CA3BBBF6CA3BB9C
:1019E00054E6D9BB5BC884BCB984E7BB54E6D9BA1A
:1019F000240BB13C54E6D93BBC78C5BCEF474CBC8A
:101A0000240BB13CC260013C54E6D9B9240BB13C73
:101A1000F42F883CEC53EEBC8C9D1CBC51F2FBBCFB
:101A2000C260013CBC78C5BC54E6593BB984673CF4
:101A30001E23753BF42F88BBBF6CA33A54E6D9BA7A
:101A400054E659BAB984E7BB8AA9BEBB54E6D93A71
:101A5000F23B2ABCBF6CA33ABF6CA33B54E6593B94
:101A600054E6D9BABF6CA33AF23B2ABC8AA93EBC61
:101A70005ACE95BB1E23F5BB8C9D1CBCC26001BC1D
:101A800054E6D9B9F42F08BCBF6CA33B5ACE153C21
:101A9000F42F083BEF47CCBBF33599BCBF6CA3BB1D
:101AA0005ACE153C1E2375BB1E2375BBF041BBBC33
:101AB0001E2375BC27FF0E3CC06692BC27FF0EBCE0
:101AC000240BB13CF42F883C57DA37BC8E978BBC83
:101AD000F23B2ABC1E2375BBBF6C23BB2605A0BCF2
:101AE000BF6CA33A54E6D93A5ACE15BC54E6593ADB
:101AF000BF6C23BB8AA93E3C240BB1BB8C9D1C3C14
:101B00005BC8843C8C9D1C3CBF6CA33ABC78C53C34
:101B100054E659BB1E2375BCBF6CA33AEF474C3C3F
:101B2000F42F88BB00000000BF6C233C57DA373C21
:101B30002605A03CF42F083C00000000F23B2ABC24
:101B400027FF0E3C1E2375BBF42F083B240BB1BCB2
:101B500057DA37BC54E659BA54E659BAC26081BC68
:101B60005ACE95BC54E659BA54E6D93AEF47CCBBA5
:101B700058D4A63CF42F083CB984E73B2605A0BC0A
:101B80005ACE15BC8AA93EBB5ACE153CBF6CA3BA2F
:101B90005ACE953BBF6CA3BAF42F083CF42F083BF8
:101BA000EF47CC3BC26001BD5ACE95BC5ACE15BCA6
:101BB000C260013CEF47CC3B54E6D93B000000003B
:101BC0005ACE953BC26001BC87B5E0BC54E6D9BA99
:101BD000240BB1BB8AA9BEBBC26081BC1E23F5BB6E
:101BE000C066923C5BC884BCBF6CA3BA8AA9BE3BEA
:101BF00054E659BA51F27BBC54E659BAB984E73B72
:101C0000F42F08BC54E6D93A8C9D9CBCF42F883B39
:101C10005ACE953CED4DDD3CF42F883B54E6D9B9C6
:101C2000EF47CC3BB984673C54E6D9B9EF47CCBB0E
:101C30001E23F5BB8AA93E3C2117D33C5ACE953BC7
:101C4000BF6C23BB57DA37BC54E659BA54E659BACD
:101C5000BF6CA33B5ACE153C5ACE95BBBF6CA33A82
:101C60008AA93EBB54E659BABF6CA3BA54E6D9BAA6
:101C7000EC536EBC54E6D93A8AA9BEBBBF6C233C78
:101C80001E2375BBC26081BC1E23753BF23BAABC00
:101C900054E6D93ABF6CA3BA1E2375BBBF6CA3BA76
:101CA0008C9D1CBC8AA9BE3B5ACE95BB54E6D9BAC2
:101CB00087B560BC1E23753B8AA93EBC00000000AE
:101CC000B984E73BB984E7BBF42F883B57DA37BCCC
:101CD000C260013C0000000054E659BCBF6C233CCC
:101CE0008E978B3CBF6CA3BABB7ED6BC54E6D93969
:101CF000211753BC54E6D9BA5BC884BCF42F88BB07
:101D000027FF8E3CF42F083BC260013C8E978BBCB2
:101D1000B984E73B57DA37BC5ACE953BBF6CA3BAC0
:101D20001E2375BB54E6D93A54E659BC54E6593AD9
:101D3000BF6C23BBC260013C8E978BBCC26001BCF0
:101D4000F42F08BBC260813CF42F083C54E659BA1A
:101D50008AA93E3C8AA9BE3BBF6CA3BA8AA93EBCF5
:101D6000BC78C5BCEC536E3C8C9D1CBC27FF0EBCE4
:101D7000C260013CBF6CA33A201DE4BC87B5603C47
:101D8000B984E7BC54E6D93A54E6593C8AA9BE3B2B
:101D900087B560BC201DE4BCF42F883BBF6C233B9F
:101DA00054E6D9BA54E6D93AEF47CC3BEC536E3CF3
:101DB00054E6593B8C9D1CBC54E6D9391E23F53B97
:101DC000C26081BC27FF0E3CF42F88BB54E6D9B912
:101DD000BF6CA3BAF42F883BF42F083BEC536E3C46
:101DE0008AA93E3C54E6D9B95ACE95BBB98467BCA2
:101DF000F42F88BCED4DDDBCBF6CA3BBBF6C233C96
:101E000098ED4EBC98EDCE3C5050F8BB895EA0BD1D
:101E10003C3CBABD3C3CBA3D98EDCE3CEA9444BD56
:101E20005050783DE08AA53CE08A253B8EE32FBDEB
:101E3000DB05163EE08AA5BB84D990BC5050783CA7
:101E40005050F8BCA77CFD3D32321BBD464659BD03
:101E5000F49E633D98EDCE3CEA9444BD98EDCEBD32
:101E600032321BBDD680863DE08AA5BCA2F76D3D0F
:101E700084D9903D84D910BDE08AA5BCF49E633D11
:101E8000505078BC5050F8BBDB0596BDE08A25BBAE
:101E90007F5481BD84D9103D2DAD8B3DEA9444BD66
:101EA00098EDCE3CDB0516BEE08A25BC98EDCE3C15
:101EB000E08AA53BE08AA53B3C3CBABC895EA03DDC
:101EC00084D910BDE50FB5BD84D9103EEA94C43D58
:101ED00084D910BD2DAD0B3EE08AA53CA2F76DBDA7
:101EE000A77CFDBD5050783CD68006BD98ED4E3D98
:101EF0009368BF3DE08AA53C37B7AA3D5050F8BB78
:101F000058430E3E5050783D3C3CBA3CDB0596BDF4
:101F10005050F8BC98ED4E3D7F54813D9D72DEBD22
:101F20007F5481BD98ED4E3D8EE3AFBD4646D93D11
:101F300084D9103DF49EE3BC98ED4E3CA2F76D3D74
:101F4000F49EE3BC8EE32F3D7F5481BD4646593D50
:101F5000F49EE3BC58430E3EE08A253B41C1C9BD17
:101F6000E08A25BBD68006BD32329B3DEA9444BD53
:101F7000E08A25BBDB05963D98ED4EBD8EE3AF3D77
:101F800098EDCE3CE08A253CE08AA53BE08A25BC62
:101F9000E08A253C32321B3DEA94C4BD5050783C67
:101FA000E08A25BBE08A25BD37B72ABE7F5401BE33
:101FB000E08AA53B5050F83D98ED4E3DE08A253B28
:101FC00084D9903CD68006BD505078BC5050F83C27
:101FD000AAEA03BE0000000093683FBEF49E633D82
:101FE000EA94C4BD8EE3AFBD84D910BD9368BF3DF4
:101FF00058430EBED680063EAAEA03BED68006BD72
:102000003C3CBA3C4BCBE8BD98EDCEBCF49E633D66
:102010009D72DEBD5050F8BC505078BC4BCB683E32
:102020007F54813D5050783D4BCBE8BD98EDCE3C80
:1020300084D990BC37B7AA3DF49E633DEF19D43DD7
:102040003C3CBABC32329B3D5050F8BC84D9903CE9
:1020500098ED4E3C5050F83CE08A25BDD680863D38
:10206000F49E633D464659BDF49E633D3C3CBABC7C
:102070005050783C7F5401BEE08AA53CE08AA5BD63
:1020800084D910BE505078BDE08AA53B0000000006
:10209000E08A25BB98ED4E3CD68006BD9368BFBD57
:1020A000E08A253BD680863D32321B3D98EDCEBC82
:1020B00032321B3D021709BE505078BC9368BF3DB9
:1020C0008EE32F3DF49E63BD98ED4EBD5050F8BB9E
:1020D00098EDCE3C7F54813DE08A25BBF49EE33CE5
:1020E000EA9444BDDB05963DE08A253D84D910BDC8
:1020F00098ED4EBE98EDCEBD464659BDF49EE33CEC
:102100003C3C3ABE98EDCE3C5050783D98EDCEBC6C
:1021100084D990BCA77CFDBD5050F83CE08A253D99
:10212000E08AA53BF923F3BDF49E63BDD680063E4D
:10213000505078BC5050F8BB9368BF3DE08A253BB7
:10214000E08AA53C98EDCE3CF49EE3BC37B72ABEAE
:1021500098ED4EBDE08A25BD895EA03DE08A253B15
:1021600084D9903DE08A253BE08AA53D2DAD0BBE8C
:102170003C3CBABCE08A253B5050F8BBDB05163E20
:102180004646D93D84D910BD7F5481BD5050F8BB1F
:1021900084D990BDEA94443D98ED4EBC72DC5B3E20
:1021A000464659BD7F54013E37B7AA3D3C3CBA3D37
:1021B000464659BD895EA03D8EE32F3D5050F83B09
:1021C000D680063D3C3CBA3D8EE32F3DE08A25BBE0
:1021D000E08A25BB3C3CBA3C0217093ED68086BD4E
:1021E0007F5481BDF49EE3BCA2F76DBDE08AA53BA0
:1021F0007F5481BD98ED4E3DF49EE3BD5050783C38
:102200000000000000000000DB05963D8EE3AFBD3E
:1022100032321BBD505078BCE08A25BC5050783D0E
:10222000E08A253C505078BDE08AA5BB8EE32F3D67
:10223000E08AA5BCE08A253DE08AA5BB84D990BC94
:1022400098ED4EBCE08A253DE08A25BD5050F8BC93
:10225000E08A25BBB06F13BE5050F83B98ED4E3C62
:10226000E08AA53C4BCBE83D505078BC9368BF3D1D
:1022700098ED4E3C84D9903C7F5481BDD680063E7B
:10228000EA9444BDF923F3BDE50FB53D98ED4E3C0E
:10229000E08A253D84D9903C4646593D32329B3DEB
:1022A000895EA03DE08A25BCE08A253B505078BC81
:1022B0005050F83B84D910BD895EA0BD895EA0BD99
:1022C0005EC81D3E7F54813DEA94443D84D9903CD4
:1022D00041C1C9BDE08A25BB8EE3AF3D10A637BE24
:1022E000E08A25BD84D990BC8EE32F3E5050783DC6
:1022F000D680063D37B7AABDE08AA53B5050F8BB53
:10230000D68086BDF923F3BDE50FB5BD32329BBD46
:1023100084D9103DE08AA53C98ED4E3CE08AA53C6E
:102320005050F8BC3C3CBABD00000000000000006A
:1023300098ED4EBCE08A253C41C1C9BD895EA03DF7
:1023400084D9103DE08A25BCE08A253DD68006BDB3
:10235000A2F7ED3D32321BBDF49EE33CE08A25BB83
:10236000E08A253B7F54813D84D9903D8EE3AFBD0B
:102370005050F8BCE08A25BB8EE32F3D4646593DC0
:1023800041C1C9BD4646593D5050F8BB58430EBEE9
:1023900098ED4EBCE50FB5BD98ED4EBDD68086BD1F
:1023A000EA94C43D32321BBDE08AA5BC8EE32FBD4A
:1023B00084D9903D7F54013EE08A253EE08A25BCC9
:1023C00084D9903C505078BC98ED4EBD98ED4E3D70
:1023D000E08AA53CE08A253D32329B3D7F5401BE18
:1023E000E50FB5BD7F5401BE00000000E50FB5BD8F
:1023F000D68086BDE08AA5BC9D72DEBD3C3CBABCE1
:10240000F49EE33C5050F83C4646593DE08A253C5A
:10241000F49EE3BC5050F8BCE08AA5BDE08A25BB21
:10242000F49E63BD98EDCEBD5050783D895EA0BD51
:102430000000000098EDCE3C98ED4EBDF49E633D4B
:10244000E08AA5BDE08A25BB3C3CBABCE50FB53DA2
:1024500041C1493EF49EE33C98EDCEBC505078BC5F
:10246000E08AA53C98ED4E3C7F5401BEE08AA53B36
:102470007F5481BD5050F8BBD68006BDEA94C4BDE0
:10248000E08A25BCE08AA53CE08AA53BA77CFD3D0F
:102490007F5481BDE08A253D624D2D3E3C3CBA3CD7
:1024A000EA94C4BD505078BD3C3CBABDC80861BE7A
:1024B000E08A253C5050F83B84D990BD00000000D4
:1024C0005050F8BDE08AA5BD3C3CBA3C2DAD0B3E5A
:1024D0005050F83B84D990BD98ED4EBCA2F76D3DAD
:1024E000E08A253D4646593DEA94443D3C3C3ABD90
:1024F00032329B3D3C3CBABCB4F422BEEA9444BDAB
:10250000E08A253BE08A25BCE08A253C505078BD16
:10251000A2F7EDBD7F5481BD7F54813D98ED4E3DC6
:102520000000000084D9903CE08A253C98ED4EBC28
:1025300098ED4E3CE08A253C5050F83BD68006BED4
:102540005050F8BBF923F3BD3C3C3A3DF49EE3BC4C
:102550003C3CBABC84D9103DE08AA5BB98EDCE3C8A
:102560000000000098ED4E3CF49E633D5050F8BCD6
:10257000EA9444BDE08A25BDB06F13BEE08A25BB56
:10258000E08AA53BAAEA03BEE08AA53BE08A253C97
:10259000EA94443DE08A25BBE08AA53B3C3CBABCBA
:1025A00084D990BD3C3C3ABDDB0596BDD680063D46
:1025B00032329BBDC80861BEE08AA5BC00000000A5
:1025C0002DAD0BBEE50F35BE5050F83D32329B3D70
:1025D000E08A253CEA9444BDF923F3BD5050F8BC91
:1025E00000000000E08A25BB84D990BDDB0596BEC3
:1025F000F49EE3BC5050F8BCAAEA033EF49EE33DCF
:10260000A2F76D3D3C3C3A3D4BCBE83D5050F83B8A
:102610008EE3AFBD5050783C3C3CBABC98EDCE3C0C
:10262000D680063DE08AA5BDD680063EB4F422BE23
:1026300032329BBDEA94C4BD58430EBE505078BCA4
:10264000E08AA53BF923F33D98EDCE3DA2F76D3D21
:10265000EA9444BDE08AA53BE08AA5BB98ED4EBC58
:102660003C3C3ABDF49E633D98ED4E3C84D9903C91
:10267000F49E633D8EE3AFBD84D9903DF49E63BD6F
:10268000EA94443D895EA03D2DAD0BBEE08A253C19
:10269000E08AA53CA2F76D3DD68006BD7F54013E81
:1026A0008EE3AFBD32321BBED680063DAAEA033EA2
:1026B000D68086BD8EE32FBDE08A25BDE50FB53DF2
:1026C000E08AA5BC84D9903D00000000A2F76D3DD2
:1026D00098ED4EBC8EE32F3D3C3CBA3CD68086BD87
:1026E000E08A253DF49E63BDE08A253C98EDCE3C12
:1026F000A2F76DBD7F54813D2DAD8B3D98EDCEBCD5
:1027000037B72ABE0217093E98ED4E3DE08AA5BCB8
:10271000895E20BE84D9103DE08AA5BD8EE32F3DA1
:1027200098ED4EBDE08A25BB37B7AABD84D9903C51
:10273000E50FB5BD8EE3AFBD37B7AA3D895EA03DBD
:102740005050F8BCE08AA53BF49EE33D8EE32FBDDC
:1027500084D910BD76616B3EAAEA03BE4BCBE83D3F
:10276000E08A253B3C3CBABC98ED4EBC84D910BDF8
:102770003C3C3ABD9368BFBD84D9103E5050F8BD73
:10278000D68086BDE08A25BBA2F76DBD32321BBD67
:1027900084D910BD895EA0BD7F5481BDF923F3BDEE
:1027A000DB0596BDE08AA5BBD680063DE08AA5BBC9
:1027B000F49EE3BC5050F83BF49EE3BC5050F83C10
:1027C000E08A25BCE08A253B5050F83BA2F76D3DDE
:1027D000E08AA5BD58430E3E3C3CBABC8EE3AFBD7B
:1027E000D68006BD5050783C37B7AABDE08A253B5D
:1027F0008EE32F3DD68006BD98ED4EBD93683F3EDB
:10280000D680063D4646593DE08A253C021709BE62
:10281000162B473E5050F8BB3C3CBA3CEA94443E31
:10282000DB0596BDE08AA53BE08AA53B464659BD3F
:10283000E08AA5BD5050783C5050F8BC98EDCE3C95
:10284000C808613E5050783C3C3CBA3DD680863D3D
:102850003C3C3ABD84D9103DE08A253BEA94C4BD96
:1028600032321B3DF49EE3BCD68086BD5050783D8D
:102870008EE32F3D5050783C37B7AABD32329B3D96
:10288000EF19D43DD68086BDE08AA5BDE08A25BB80
:10289000E08A253BDB05963DE08A253BD68006BDD8
:1028A000E08AA53B505078BC2DAD8BBD3C3CBA3C7A
:1028B0009368BFBDEA94443DE08AA53B98EDCEBC49
:1028C000000000008EE3AFBD5050783DD680063E3C
:1028D000EF19D4BDE08A253B464659BD505078BD1E
:1028E00084D990BCE08A25BD98EDCE3D3C3CBA3CF5
:1028F000EA94443DE08AA53C5050F83C2DAD0B3E97
:102900003C3C3A3D5050F8BD0000000098EDCE3CF4
:10291000D68086BD5050783D2DAD8B3D84D990BC7E
:1029200032321B3D5050F83C32329B3DE08AA5BB11
:102930005050F83BE08AA5BB3C3CBABC58430E3E25
:10294000E08AA5BBE08AA5BB895EA0BDF49EE3BC7E
:10295000505078BCDB0596BD5050F83DF49EE33CEA
:1029600093683F3E98EDCE3CE08A25BC84D990BC6C
:1029700000000000E08A25BC000000009368BFBD95
:102980005050F8BB5050F8BD3C3C3A3DCA3FA4BE45
:102990008EE32FBD84D990BDD680063DE08A253CCC
:1029A0004646D93D8EE3AFBD3C3CBA3CF49EE3BC09
:1029B000464659BD3C3CBA3CA2F76D3D98EDCEBCB5
:1029C000EA94443DEA94443DE08A25BB98ED4E3CB0
:1029D000F49E63BD98ED4EBEE08A25BB505078BC96
:1029E0008EE3AFBD98ED4EBC84D9103DA2F76D3D8E
:1029F000E08A253C7F5481BDE08A253CE50F35BE49
:102A0000021709BE32321B3D32329BBD5050F8BC1A
:102A100037B72A3EF923F3BD84D910BDE08A25BC1F
:102A200032321B3D98ED4EBC98ED4EBD5050783C77
:102A30002DAD0B3EAAEA03BE5050783C9D72DE3DA0
:102A4000E08A25BDE08AA53CE08AA53CE08A253CD9
:102A50005050783C84D990BDE08AA5BD464659BD0A
:102A60008EE32FBD5050F83B37B7AABD32329B3DA5
:102A700084D9103D84D990BD37B7AA3DA2F76D3DEA
:102A800084D9903CEA94443ED680863D4646593DE2
:102A90003C3CBABD069C18BE1AB0563EF49E63BDBF
:102AA0009D72DEBDF49EE33CE08A25BB464659BDDF
:102AB000EA9444BDEA9444BDE08A25BBE08A25BC83
:102AC00098ED4E3DF49EE33C5050F83DDB0596BD3D
:102AD0004BCBE83DE08A253C98EDCE3C8EE32FBD04
:102AE000E08A253CD680863DE08AA53BEA94C4BDB9
:102AF00098EDCEBC98ED4EBCE08AA53BDB0596BDBB
:102B0000E08A25BE98ED4E3CAAEA033E4BCBE8BDD9
:102B10007F5481BD5050F83CD680063D0000000037
:102B2000EF1954BE98EDCEBC32321BBD9368BF3D49
:102B30009368BF3D98EDCE3D7F5481BD84D9103D53
:102B4000D680063D5050783CD68006BDEA94443D80
:102B500084D9903C5050F83C98ED4E3DE08A253C9D
:102B6000895EA03DF923F3BDEA9444BD8EE3AF3DF9
:102B7000E08AA5BCE08A25BB3C3CBABCE08AA5BC87
:102B8000505078BCE08A253BF49EE33C8EE3AF3D99
:102B9000E08AA5BC9368BF3D2DAD8B3D84D910BDA7
:102BA000F49E63BDF49EE3BC9D72DE3DF49E633DE6
:102BB00098ED4E3C5050F83C32329BBDBEFE41BEBB
:102BC00032321BBDD68006BD32321BBD84D910BD4A
:102BD000D680063D98EDCE3CE08AA53BD68006BD6A
:102BE000EF19D4BDA77CFD3D7F5481BD5050F8BC8A
:102BF000069C18BE32329B3DE08A25BB32321B3D1B
:102C0000E08A253B4646D9BD32321B3D98EDCEBC0D
:102C1000E08AA5BCE08A253BEA94443D7F5481BD0F
:102C2000D680063D98ED4EBD98ED4EBCE08A25BDA0
:102C3000E08AA53B5050783DE50FB5BDD68006BD76
:102C400098EDCE3C84D9903CF923F3BDF49EE3BDCE
:102C500098EDCEBCE08A253BDB05963DE08AA53B9E
:102C600032329BBD84D910BD32321B3D98ED4E3CB3
:102C700098ED4E3C32321BBDF49EE33C98EDCE3CC9
:102C800098ED4E3DE08AA5BC8EE3AF3D32329BBD50
:102C9000E08AA5BB37B7AA3DE08AA53CD680863D31
:102CA000E08A25BD68D23CBEE08A25BC7F54013E47
:102CB00098ED4E3DE08AA5BB98EDCE3C3C3CBABCBD
:102CC0004646D93DF49E633D505078BD32321B3D9F
:102CD00084D9903C84D9903CD68006BDB06F133E19
:102CE00084D990BCE08A253C9368BFBD5050F83B26
:102CF000F49EE3BCF49E633D37B7AABD98ED4E3D0C
:102D0000A65E6ABC193F9C39F5A8343CCAF451BC94
:102D100036B708BC193F1CBCDF4E433BC2D656BB7E
:102D2000EE8AB9BB9722743C36B708BBD1124D3C32
:102D3000C2D6563B0000000036B7083C4164813CD7
:102D4000D1124D3C36B7883BEE8AB93CD112CD3B0F
:102D5000A65EEA3A193F9CBB193F9CBA36B708BC3D
:102D6000A65EEA3AEE8A393CC2D6563CAD7CE5BC5A
:102D700036B7083B89E67DBCD112CDBC193F9CB962
:102D8000A65EEA3BA65EEABAFCC6AF3B277B92BBD7
:102D9000C2D656BC193F1CBAF5A8343CCD83CFBC73
:102DA000C2D6D6BBF5A834BCC2D6563BDF4EC3BA9A
:102DB00089E6FD3B277B123C89E67DBBE66C3EBC89
:102DC000A65EEA3AFCC62FBB36B708BC193F1C3AD0
:102DD000B49AE03B277B12BC193F1CBB193F9C3CBB
:102DE000193F9C3989E67DBBB49AE0BBDF4E43BBFB
:102DF0000B03A6BBAD7C65BCB49AE03B193F9C3B82
:102E0000B49A603C193F9C3B193F1C3A277B92BC0B
:102E100003E52A3CA65E6ABACAF4513C89E67D3BCA
:102E2000AD7C65BC36B7083BA65E6ABA89E67DBB59
:102E3000277B12BC36B708BBDF4EC3BA89E67DBB21
:102E4000F5A8343CEE8A39BC2F998D3CA65E6A3ACF
:102E5000C2D6D63B89E67D3B193F1CBADF4E43BC48
:102E6000193F9C3BF119B7BC9E406FBC193F9C3B7E
:102E700036B7083B0774A8BCC2D656BBDF4EC33A70
:102E80000B03A63BEE8AB93BA65E6ABBC2D656BB15
:102E9000DF4EC3BB193F1CBBA65E6ABAA65E6A3B87
:102EA000193F9C3AA65EEA3A122121BC9722F4BB54
:102EB000A65E6A3BD1124D3CD112CD3BB49A603C28
:102EC000122121BCCAF451BC24EC94BC193F1CBC97
:102ED000900479BCA9EDE7BC36B708BBA65E6ABA18
:102EE0000B03A63C193F9C3AC2D6563BB49AE0BBB2
:102EF000EE8AB9BB205D17BC193F9CBB36B7083BB7
:102F0000D112CDBBC2D656BC89E6FD3B193F9C3AD7
:102F1000DF4E43BCFCC62FBB193F1C3A32288B3C0A
:102F2000B49AE0BC193F1C3C193F9CBB3DD5033C07
:102F3000193F9CBB193F9C3B0B0326BC03E52ABCF5
:102F4000C2D6D6BB00000000E66C3EBC89E67DBC64
:102F5000193F1C3A0B03A63BB49AE03BBBB85B3C61
:102F6000A65E6ABAA65E6ABCA65E6A3AC665D43C2C
:102F700000000000BBB85B3C00000000193F9C391A
:102F80001221213C193F9C3B277B92BB0000000093
:102F9000205D17BCB49A603CDF4EC3BAA65EEABBA4
:102FA000FCC62F3B3DD583BC193F1CBBD1124DBC89
:102FB000FCC62FBBA65EEABB193F1CBAEE8A39BC21
:102FC000193F1C3B36B708BCD830483C89E67D3CED
:102FD000DF4EC3BBD112CD3BFCC62F3BAD7C65BCE5
:102FE000EE8AB9BB900479BC1221213C3DD5033C4B
:102FF00003E52ABCD830483C89E67D3B0B03A6BCE0
:103000000E92A33CA65E6ABB277B123C9E406F3C9F
:10301000277B92BB3DD503BC9722F4BB89E67D3B61
:10302000C2D656BB36B708BB205D973CFCC6AFBBCB
:10303000A65EEABB0B0326BCFCC6AFBBDF4EC3BA21
:10304000DF4EC33A0B03A63BDF4EC33ADF4EC3BA93
:10305000EE8AB9BCF119B73CDF4E43BBA65E6ABA33
:103060000E92A3BC36B7883CDF4EC3BAD112CD3B1B
:10307000FCC62FBC89E6FDBB36B7083BC2D6563B23
:103080000B0326BC03E52ABCA65E6ABB36B788BC28
:10309000193F9CBC1DCE993CCAF4513CA65EEA3A4D
:1030A000EE8AB93BDF4EC33B3DD503BC03E52A3C6A
:1030B000FCC62FBBE66CBEBC89E67DBB0B03A63B02
:1030C000DF4EC33B36B7083C1221A1BC122121BC04
:1030D000DF4EC33AA65E6ABBA65E6ABC193F9C3B44
:1030E000A65E6A3B193F9C39FCC6AFBBFCC62FBB32
:1030F0000B03A63B193F9C3CDF4EC3BA89E67DBB60
:10310000DF4E43BC00000000FCC62FBBEE8AB93B7B
:10311000B49AE03C000000001221A1BC36B708BB05
:103120002F990DBCDF4E433C193F9C39205D17BCE5
:10313000C2D6563B00000000193F9C3C3DD5033CE5
:103140000B0326BCC2D656BC277B923B0B03A6BB07
:10315000CAF451BC32288BBCCD83CF3C205D173CD8
:10316000193F9C3B0B03A6BBDF4E433CD112CD3B2A
:10317000193F9C3A9004793C277B92BBCAF4513C9E
:103180003DD583BC205D97BC277B923C89E6FD3B07
:10319000193F1CBCC2D6D63B193F9C3936B7083CF8
:1031A000193F9CB9394686BC03E52ABC8C75FB3CAB
:1031B000D112CD3B193F9CBC900479BCA2CFECBC92
:1031C000DF4E43BBF5A8B43C0B03263C1221213C47
:1031D0002F998DBC36B708BB193F1C3BFCC6AFBC52
:1031E00036B788BC00000000972274BC2F990D3CB4
:1031F000D112CDBB36B7883B89E6FD3BA65E6ABAE5
:10320000A65E6ABADF4EC3BBE66C3EBCB49AE0BBB6
:10321000EAFBBBBC193F1CBAC2D6D63B89E6FDBB54
:10322000193F1CBBEAFBBBBC277B923B193F1C3AF6
:10323000DF4E433B0E92A3BCC2D6563BEE8AB9BBCF
:10324000DF4EC33AFCC6AFBB193F1C3C205D173CA8
:10325000205D173C2F990D3C89E67DBBA65E6ABBBD
:10326000193F9C3BDF4EC3BCC2D6563BA65E6A3BB1
:10327000DF4E433B36B7083CDF4EC33A9722743CDF
:1032800036B7083C205D173C277B92BBDF4E43BC22
:10329000DF4EC3BAA65E6ABC9004793C193F9CB964
:1032A000193F1CBA9722F4BBEE8AB9BB193F1C3AEE
:1032B000A65EEA3BB87E07BD277B923CFCC62F3B4F
:1032C000FCC62FBBA65EEA3ADF4E433B03E52ABCB1
:1032D0001221213C89E6FDBB3DD503BCB829DEBCEB
:1032E0002F990DBCDF4EC33ADF4E43BC32288B3CD6
:1032F000B49AE0BBC2D656BB205D173CBBB85B3C62
:10330000A65EEA3AA65EEA3AA65E6ABBDF4EC33B19
:1033100089E6FDBB000000000B0326BC277B923B27
:1033200036B788BBF5A834BCD830483C193F1CBC24
:1033300036B788BB89E6FDBB3DD583BC9E406FBCDC
:10334000A65EEA3B0B0326BCBF47D93CC2D6D63BA0
:10335000D83048BCEE8A39BC193F9C3AEE8AB9BBDA
:10336000C2D656BB24EC943C972274BC0B03A63BFC
:10337000F5A834BCDF4E43BC9722F4BB36B708BC7B
:103380000B03A6BC36B708BB36B708BBDF4E433CC1
:1033900036B708BCB49AE0BC36B7883C193F9CBC31
:1033A000AD7C65BCD112CDBB03E52ABC89E67D3B73
:1033B000193F1C3B2F990DBCA65E6ABA00000000A5
:1033C000A65E6A3AB49AE03BE66C3E3CBF9C023D86
:1033D000193F1CBB394686BCA65EEA3BA65E6ABAAC
:1033E000CAF4513C193F9C39A65EEABAAD7CE5BCF3
:1033F000205D17BC193F1C3A193F1C3AC2D656BB78
:10340000193F9C3A277B12BCDF4EC33C3DD503BC21
:10341000277B92BBE66CBE3CA65EEABB3DD5033C77
:10342000C2D6D63BFCC62FBB193F1C3A193F1C3BEA
:1034300089E67DBBDF4EC3BA0E92A3BC2F998DBC2B
:10344000D4A1CA3C2F998D3C277B123CA65E6A3AD8
:10345000205D173C2F998D3C36B708BBA65E6A3CB1
:10346000DF4EC33B36B708BBF937B2BC36B708BB33
:10347000B49AE03B193F9C3B0B0326BC193F1C3C14
:10348000FCC6AF3C0774A8BC3DD5033CA65EEABAB7
:10349000FCC62FBBDF4E43BBD112CDBBE66CBEBC1E
:1034A000972274BC36B7083BDF4EC3BBEAFBBBBCFC
:1034B000277B923C205D17BCD112CD3B193F9C3934
:1034C000D830483CC2D656BB36B7083C36B7083B66
:1034D000FCC6AF3BDF4EC3BA193F9CBAFCC6AF3B3C
:1034E00000000000900479BC972274BC3DD583BCD9
:1034F000B49AE03BB49A60BCA65E6A3ADF4E43BC25
:1035000003E52ABC00000000193F1C3A2F998D3CAE
:10351000FCC62FBC193F1C3A1DCE99BCA65EEA3BE7
:10352000F5A834BCFCC62F3B0B03A63CA65EEA3ACA
:103530000B03A63BB49AE03BA65E6ABAFCC62F3CDE
:103540002F990D3C277B123C277B923BDF4E433C5F
:1035500003E52ABCDF4EC3BB394686BCB00BE33C57
:10356000DF4E433BE66C3EBC36B708BB277B923B45
:10357000193F9C3936B788BC2F990DBCE66C3EBC10
:10358000C2D6563BDF4EC33ADF4E433CF937B23C1E
:1035900036B7083C9B061B3D03E52ABC277B92BB44
:1035A000EE8AB9BB122121BC193F1C3A3DD503BCA0
:1035B000277B12BCA65EEABB9722F4BB36B708BCD9
:1035C000193F1C3A32288BBCA65E6ABBA65EEA3A5B
:1035D000E66CBE3C000000003DD5833CD112CD3BE3
:1035E00089E6FDBB24EC94BCDF4EC3BB89E67D3B82
:1035F0003DD5033C9722F4BB1221A1BCA65E6ABB59
:10360000D1124DBC36B7083CC2D6563B0B03A6BB05
:103610000B03A63CB49AE03BA65E6ABADF4E43BBFE
:103620001221213C900479BC193F9C3B193F9C3BE3
:10363000122121BCC2D656BB3DD583BC2F990D3C6F
:103640002F990DBCD112CDBB9722F43BDF4E433BEB
:10365000B49A603C36B7083BDF4EC33A9722743CBD
:10366000D83048BC193F9CBAF5A8343CB49AE0BBAA
:1036700036B788BC193F1CBBBBB85B3CDF4E43BBB5
:1036800036B788BB193F1C3C193F9CB9A65EEABA05
:10369000D830483CB49AE0BB193F9C3A193F9C3A59
:1036A00036B708BC0B03263CDF4EC3BBA65E6A3BA5
:1036B00089E67D3BDF4EC3BADF4EC3BACAF4513C44
:1036C00089E6FD3B9722F4BBC2D656BB89E67DBC9A
:1036D0000B03A6BBA65E6ABCA65EEA3ABBB85BBC9F
:1036E000CAF4D1BCA65E6A3B1DCE99BC36B708BBF6
:1036F000EE8AB93BF119B7BC193F9C3936B7083B84
:10370000DF4EC3BBA65EEA3BFCC62FBBD4A1CABC3E
:10371000193F9CBADF4EC33AA65E6A3AC2D6563CFF
:10372000193F9CBA193F9CB9C2D6D6BB9722F43B2D
:1037300000000000A65E6A3BA65E6ABC36B7083C85
:10374000B49AE0BBFCC62FBBD112CDBB36B708BBC9
:10375000B49A603C00000000394686BCEE8AB9BBD2
:10376000A65E6A3AFCC62F3C2F998DBCDF4EC33B48
:10377000BBB85B3C193F1CBBFCC62FBCFCC62FBCB6
:10378000DF4EC3BB193F1C3C193F1C3B9722F4BBC7
:1037900032288B3CA65E6ABAFCC62FBC0056ADBC74
:1037A000C2D6563B193F9CBB193F9CB9FCC62FBCE7
:1037B000CAF4513C36B708BB3DD5033DDF4EC3BA12
:1037C0001221A13CE66C3E3C36B7083B36B7883B3D
:1037D000C2D656BCA65EEABAB49A603C122121BC9D
:1037E00089E67D3B193F1C3AC2D656BBA65E6ABA33
:1037F000A65EEABAFCC6AFBB24EC94BCA65E6A3BEC
:10380000F5A834BC36B788BCDF4E433CB49AE03BE5
:10381000DF4EC3BAFCC6AFBBD1124DBCF5A8B4BCD9
:10382000DF4EC33B3DD503BCE66C3EBCDF4EC33B25
:103830000B03A6BCA65EEA3A89E67D3BDF4E433B1E
:10384000EE8AB9BCEE8AB93BB49A603CAD7C65BCEB
:103850002F990DBC277B123CD112CDBBDF4EC3BCD0
:10386000FCC6AF3BC2D6D63BE3DDC0BCDF4EC33A9D
:103870009722F43B89E6FDBB0B03A63B0B0326BC5A
:103880000B03A63BF5A834BCA65E6ABA193F9CBAE6
:10389000277B92BC205D173C277B92BCA65E6A3AD0
:1038A000AD7C65BC193F1CBB9722F43BD112CDBB4C
:1038B0003DD583BC0000000089E67D3B0000000090
:1038C000BBB85BBCFCC6AFBBA65EEABB193F9C396C
:1038D00089E6FD3BD112CDBB03E52ABC193F9CBB59
:1038E000193F9C3B193F9C3AC2D656BBDF4E433B27
:1038F000193F1CBA9004793C277B923C9722F4BB79
:103900009722F43BD4A1CA3C9E406FBCFCC62F3B1F
:10391000A65E6ABBA65EEA3AA65EEABAB49AE03B45
:10392000D112CDBBBBB85BBC0B03A63BEE8A393CC6
:10393000193F9CBA0E92A33C36B788BB2F990D3C19
:10394000193F9CB9C2D6563BC2D656BB89E6FDBBD1
:10395000DF4E43BB89E67DBB205D17BCA65E6ABB1C
:1039600089E6FD3B36B788BB394686BC2B0A903CBE
:10397000EE8A393CA65E6ABAFCC62FBC277B92BB96
:10398000BBB8DBBC3DD5033C03E52A3C36B788BC5D
:10399000D1124DBCFCC62F3C89E67DBC193F1C3BB7
:1039A000DF4EC3BB89E67DBBEE8AB93B89E6FD3BB2
:1039B000FCC62FBB89E67DBC193F9C39193F1CBA58
:1039C000AD7C65BC193F1CBBAD7C65BC9004F9BCEB
:1039D000A65EEABBEE8AB93BFCC6AFBC900479BCDC
:1039E000193F9C39416481BC193F1CBB193F1CBB6A
:1039F00000000000193F9CBBA65E6ABB00000000EF
:103A0000F5A8343C36B788BB36B788BBDF4E433B9E
:103A100036B708BCFCC62F3B2F990D3C9722F4BB50
:103A20000B03A63BD112CDBCB49AE03BEE8AB9BBE6
:103A3000205D173CC2D6D6BB9722743C36B7883B74
:103A4000EE8A39BC2F990D3C193F9C39193F1CBC9B
:103A5000193F1CBB193F1CBA193F9CB9EE8A39BCEF
:103A6000B49A603CC2D6D6BCA65EEA3AFCC6AFBCED
:103A7000193F9C39A65E6A3AA65E6A3A36B7083C98
:103A8000193F9CB9416481BCA65EEABA193F9C3CCF
:103A90003DD503BCA65EEABCDF4EC33BDF4EC3BAD6
:103AA000B49AE0BB89E6FD3B277B92BBC2D6563B6E
:103AB000205D97BCFCC62FBCE66C3E3C9004793C74
:103AC000C2D6563BC2D6563B193F1C3CC2D656BB4B
:103AD000193F9CB90774A8BCB829DEBCCAF4D13C14
:103AE000A65E6A3C193F9C3B15B09EBC36B708BD2C
:103AF0002F990DBCDF4E433CD83048BCEE8AB93B11
:103B0000193F9CB9D1124DBCEE8AB93B36B708BB00
:103B1000A65E6ABBA65EEABB277B12BC1221213CD3
:103B2000193F1CBCFCC6AF3B36B7883BC2D6D6BBE0
:103B3000FCC62F3BD112CD3BDF4E433CA65E6A3A1A
:103B4000416481BCDF4EC33ACAF4D1BC0B03A6BBAF
:103B5000277B123CA65EEA3A193F1C3B3DD5033C4D
:103B6000277B123C2F990D3CCAF451BCC2D6D63BE0
:103B7000DF4EC3BAA65E6A3B89E6FDBBEE8A393CDE
:103B8000D83048BC205D173C9E406F3C205D973C80
:103B9000B49AE0BB2F990DBC193F1CBB0E92A33CFD
:103BA000EE8AB9BBC2D6D6BBDF4E433BAD7C653C8B
:103BB00036B7083C193F9CBCEE8AB93BB49AE03B4F
:103BC00003E5AA3CDF4EC33CA65E6ABB193F9C3AA4
:103BD000F5A834BCDF4E433BB49A603C89E67D3B9C
:103BE000FCC6AF3BEE8AB93B193F1C3A36B7083BDF
:103BF00089E6FDBB3DD503BC36B708BB15B09EBCFE
:103C0000B6B8BD3BC35C083C9F01263B4E3814BC94
:103C1000884A8EBBA91473BC584BE13B00000000DE
:103C200014269A3C9F0126BB14269ABCE426EDBAC2
:103C3000B6B83D3CE426EDBBB6B8BDBAF4732A3D38
:103C4000CD6F55BB312F973CE4266D3C884A8E3AA8
:103C50007CA6433CB6B8BD3AE4266DBBB6B83D3B46
:103C6000FD6E82BC000000009F01A6BB6F0279BC04
:103C70009F0126BB884A8E3A14269ABC884A8E3AFF
:103C8000884A8E3C4194C93BA6538B3CB6B83DBB99
:103C9000F0CA37BC419449BC884A0E3CDA1320BCB8
:103CA0001E39E73C884A0EBC884A0E3B584BE13B24
:103CB00014269ABBE426ED3A9F01A6BB6F02F9BB1E
:103CC000B6B8BDB91E39673C65EF2B3C2BDD313CE6
:103CD000F0CAB73CDA1320BCE4266D3B6F02F9BB97
:103CE00099AFC03C6F02F93BE06585BCCD6FD53B19
:103CF0004E38143CE426ED3BF71C9DBC2BDD31BC5B
:103D00002BDDB13BFD6E82BC884A8EBA2BDDB1BC87
:103D1000884A8E3A2BDDB1BBE426EDBA2BDDB13BF0
:103D200014269A3BE4266D3B1E39673C312F97BC25
:103D3000FD6E82BCB6B83DBA4194C9BB65EF2BBCE1
:103D4000B6B8BD3AFD6E02BDE4266DBBE426EDBB00
:103D50007CA643BCDA1320BCB6B8BD3B14269ABB84
:103D6000F0CA37BCB066D8BCFD6E82BB3B42E43CB7
:103D7000B6B83D3AB6B8BDBBB6B8BD39CD6F55BBC8
:103D80004194493CB6B83D3AFD6E82BB1E39673C52
:103D9000FD6E82BB4194C9BBE065853CF71C9D3C30
:103DA000884A0EBBE426ED3A2BDDB1BB884A8EBBB8
:103DB000B6B83DBA4194C9BB9F01263CB6B8BD3BDD
:103DC000DA1320BC6F0279BCFD6E823B9F01A63BDB
:103DD0002BDD31BC884A8EBBE4266D3C884A0E3B05
:103DE000E426EDBA884A8E3B35F07E3CCD6F553BDC
:103DF000B6B8BDB9BC0AA33C6B41913CB6B8BD395D
:103E0000E426EDBBE4266D3CB6B8BDB9E426EDBBB7
:103E100014261A3C9F01A63B925D5B3CB6B83DBBA5
:103E2000584B61BC1E3967BC884A8EBBB6B83D3A58
:103E300065EF2BBC5F9DC6BC884A0EBB14269ABB9F
:103E40009F01263B419449BC35F07EBC65EFABBC7D
:103E5000CD6FD5BBCD6F55BBE426ED3ADA13A03C50
:103E6000B066D8BC9F01A6BB9F0126BB884A8E3B8B
:103E7000B6B8BD399F01263C00000000E4266D3C29
:103E80004194493C6F02F9BBB6B8BD3B000000004D
:103E9000B6B8BD3A4194C93B4E38143CB6B83DBBA8
:103EA0004E38143CFD6E02BC925D5BBCC35C88BCAA
:103EB000B6B83DBCB6B8BD3BB6B83DBABC0AA3BCAB
:103EC000884A0EBBB6B83D3CB6B8BD3A925D5B3C85
:103ED0001E39E7BC14269ABCB6B83DBBE065853CEC
:103EE000B6B83DBCC35C08BC453D3C3DE426EDBADC
:103EF000884A8EBBE4266D3BB6B8BDBA7CA6433C6F
:103F0000D3C1BA3CFD6E82BBA914733CB6B83D3B2D
:103F100065EF2BBCB6B8BD3BBC0AA3BCC35C08BCF8
:103F20004E3814BC65EF2B3C6F02F93B884A0E3BC0
:103F3000B6B83D3B2BDDB1BBB6B83DBBB6B83DBA5C
:103F40004E3814BC884A8E3B884A8E3B9F01263CE3
:103F5000EA78D2BC9F01263B884A8E3B6F0279BC2F
:103F6000312F97BC4194493C35F07E3C6F02F93BC0
:103F7000925DDBBCB6B8BD39884A8EBBFD6E02BC13
:103F8000D3C1BA3C6F0279BC4E38143C419449BC51
:103F90009F0126BBC35C08BC1E39673CE426EDBB11
:103FA0009F01A6BCE426ED3BF0CA373C1E3967BC36
:103FB00065EF2B3C925D5BBC9F0126BBB6B83DBB59
:103FC000A91473BC884A8EBA584B61BC7CA643BC0A
:103FD000B6B83D3A9F01A6BB14269A3B65EF2B3C31
:103FE000FD6E823BFD6E823B584B613CB6B83DBADC
:103FF000884A8EBA6F02793CB6B8BDBBFD6E823B73
:10400000E4266DBC00000000B6B83DBCB6B83D3B30
:10401000C35C083C9F01A6BB99AFC0BCE426ED3A47
:10402000584BE13B312F973CB6B83D3CF0CAB7BC8A
:104030002BDD31BCDA13203C14269A3C9F01A63BB1
:10404000FD6E82BBFD6E82BCB6B8BD3BB6B8BD3A54
:10405000884A0EBCE4266DBB584BE13BE426EDBB21
:10406000CD6F55BB65EF2BBC9F01263C0DD4B4BC76
:104070004E38143C884A0E3C9F0126BCB6B83D3AE7
:10408000FD6E82BBFD6E82BCCD6FD53BFD6E82BBEB
:104090009F01A63BFD6E02BC419449BC6F02F9BB77
:1040A00014269A3B884A8EBCB6B8BDBAB6B83D3C19
:1040B000FD6E823B584BE1BBFD6E82BBE4266DBCBE
:1040C0009F01263BCD6F553BCD6FD53B9F01263BD6
:1040D0004E3814BCC35C08BCE4266DBB2BDD313C00
:1040E00082F8A8BC9F01A6BBE4266D3BE4266D3C8C
:1040F000F71C9DBCB6B8BD3935F07E3CA91473BC25
:10410000E4266D3BB6B8BDBAFD6E023C2BDD31BC7A
:10411000FD6E82BBFD6E02BC9F01A6BB884A0EBB32
:1041200000000000884A0EBCE426EDBBFD6E823B19
:10413000884A8E3BA914733CFD6E023CA91473BCE3
:10414000884A8E3AB6B8BDB9FD6E023CF0CA37BC9B
:10415000DA13A03CFD6E823B00000000B6B8BDBA89
:10416000FD6E823B14261ABC14261ABC4E3814BCB1
:10417000B6B83D3CF0CA373CB6B83DBCB6B83DBB5E
:104180002BDDB1BBB6B83DBA584BE13BB6B8BDBAB2
:104190004194C93BB6B8BD3A9F01A63B9F01A63BDF
:1041A000B6B8BDBCB6B83D3BDA13A03C4E3814BC23
:1041B000584B613CFD6E02BC14269A3B884A8EBB6C
:1041C000B6B8BD39884A8E3A14261ABC8CF300BDA5
:1041D000CD6FD53B884A0EBC884A0E3C884A8EBCBF
:1041E000884A0E3BE4266D3CF71C9DBC4E38143CBF
:1041F00065EF2BBCF0CA373CCD6F553CC35C083C27
:104200002BDDB1BBB6B8BD39FD6E823B884A0EBC12
:10421000B6B8BD3ACD6F553B6B4191BC9F01A6BB73
:10422000884A0EBB4194493C4E38143CCD6F55BB77
:10423000B6B83DBA1E39673C584BE1BBFD6E82BB38
:10424000584BE13B4E3814BCB6B8BDBA9F01A6BC72
:10425000F0CA37BC884A8EBA14269ABBB6B8BD3BA2
:1042600014269A3BF0CA37BCDA1320BCB6B83D3BE3
:10427000884A8EBBB6B8BDBBC35C08BCE426ED3A29
:10428000DA13A0BC00000000584B613CB6B83D3AC0
:10429000E4266D3BE4266DBBE426EDBAB6B8BDBBA3
:1042A000A914733CB6B8BDBBE426EDBAFD6E023C62
:1042B000884A0E3C884A8E3A2BDDB13B0000000054
:1042C000FD6E02BCCD6F55BBE065853CC35C08BC90
:1042D00082F8A8BC884A0EBB9F01A63B9F0126BB63
:1042E0006F02F9BB884A8E3BF0CA37BC99AFC0BC9D
:1042F000A6538BBC00000000884A8E3AC35C88BC81
:104300002BDD31BCC35C88BC884A0EBCCD6F553BED
:104310009F01263B925D5B3CB6B8BDBCCD6FD5BB63
:10432000B6B8BD3B9F01A6BB2BDDB13BCD6F553B66
:10433000B6B8BDBA00000000884A8EBCDA1320BCB3
:10434000F0CA373C4E38143CE4266D3BDA13203C6F
:1043500035F07E3CB6B8BD3AE4266DBB7CA6433C46
:10436000B6B8BDBA14269A3B9F01263BE426ED3A27
:10437000E426EDBB884A8EBAFD6E823B9F01A6BB48
:10438000E426ED3A9F01A6BB9F0126BB884A8E3AE0
:1043900035F07E3C584BE1BB9F01A63C9F01A6BC7B
:1043A000884A8EBBB6B8BDB92BDDB13B4E3894BC44
:1043B0009F01A63B6F02F93BE426ED3AFD6E02BC7D
:1043C000B6B8BD392BDD313C65EF2BBCB6B8BD3A74
:1043D000FD6E023CE4266D3BE426EDBAFD6E823BA9
:1043E000000000009F01A63B884A0EBCCD6F55BB64
:1043F000B6B8BDB9584B613CE426ED3BC35C08BC84
:1044000065EF2B3C4194C93B9F01263B6F02F93B72
:1044100048E6AEBC6F02F93BCD6F55BC9F0126BC90
:10442000884A0EBCF71C9DBC14269ABB9F01A6BBF4
:104430002BDDB13B14269ABBC35C083CC35C883CB3
:104440004194C9BB4E38943C9F0126BBE4266D3C89
:1044500065EF2BBC884A0E3C1E3967BCB6B83DBB25
:104460004E38143CF71C9D3CCD6F553B14269A3BAF
:10447000884A0EBCFD6E823B5F9DC6BC4194C93B21
:10448000CD6FD53B35F07E3C07824F3C884A0E3CD1
:104490004E3814BC6F02F9BBF0CA37BC6B4191BCFB
:1044A000584BE13C9F01263CB6B83DBB14261ABCD4
:1044B000B6B8BDBAE4266DBCCD6FD5BB6F02F9BBF3
:1044C000584BE1BB14261A3CB6B83DBB884A0EBC1B
:1044D000584B613C925D5B3C884A8EBA584B613CBC
:1044E000E426EDBB9F01A63B419449BC6F02F93B1A
:1044F00048E6AEBCC35C08BC9F01263BE426EDBB8E
:10450000CD6F553BB6B8BDB9584B613CFD6E82BB13
:104510005F9DC63CE426ED3B07824F3C4E38143C81
:10452000884A0EBC9F01263BE426ED3A884A0EBB22
:104530004194C9BCCD6F553BF0CA37BCC35C083C45
:104540007CA6433C6F0279BC9F01A6BBE4266D3B71
:10455000E4266D3BFD6E02BC2BDDB1BBE4266D3B5A
:10456000884A0E3BB6B8BDBAA914F33C4E3814BC09
:10457000DA1320BC0782CF3CFD6E82BB65EF2B3C7B
:10458000E4266D3C82F8A83C584BE1BBCD6FD53B8F
:1045900035F07EBC419449BC2BDDB13BCD6FD5BB22
:1045A000C35C08BC82F8A83C9F0126BBB6B83D3A64
:1045B00014261A3CFD6E823B14269A3B884A0EBB99
:1045C000A91473BCC35C08BCFD6E823BFD6E02BCCB
:1045D00014269ABBFD6E023C884A8E3A419449BC2F
:1045E000884A0EBBA6538B3CCD6FD5BBE4266DBB72
:1045F000884A0EBB584BE1BB9F01A63B884A0EBCC4
:10460000248BCCBC4194493CCD6FD5BB2BDDB1BBD9
:1046100014269ABBB6B8BD3A65EF2BBC4194C93B92
:104620009F01263B9F01263B6F02F93BCD6F553B17
:10463000584BE13B2BDD31BC884A0EBB2BDD313CB6
:10464000E426EDBB584BE13BB6B8BD3B7CA643BC72
:10465000FD6E823CCD6F553B884A0EBB584B613C8A
:104660009F01263BB6B83D3B6F02F93BDA13A03CF5
:10467000DA13A03C884A8E3B7CA6C3BC34D809BD63
:104680009F01A63BB6B8BD391E39673C0DD4B4BCFA
:104690000130EA3C925D5B3C7CA6433C0782CFBC88
:1046A0006F02F93BFD6E82BC35F07E3C07824FBC49
:1046B00065EF2B3CCD6F55BBE426ED3B2BDDB13BCD
:1046C000B6B8BD3BB6B83DBBB6B83DBCE065853CB1
:1046D0009F01263BCD6FD5BBCD6FD53BB6B8BD3A5C
:1046E0009F01263BE426EDBAB6B8BDBAFD6E82BB8B
:1046F00048E6AE3CFD6E82BBDA1320BCB6B8BD39CD
:1047000048E6AE3CB6B8BD3B4194C93B584BE13B93
:104710006F02793C6B4111BDB6B8BD3A0DD4B4BC43
:10472000E4266D3B7554DEBC9F01263BDA13203C2A
:104730009F01A6BB884A0E3BB6B83D3A884A8EBB5D
:10474000B6B83D3C6F02F9BB9F01A6BBCD6F55BB10
:10475000FD6E823BCD6FD53B07824F3C14261ABCC1
:10476000B6B8BDBAE426EDBA2BDDB13B884A0EBC23
:104770009F0126BCB6B8BD3B6F02F9BBB6B8BDB948
:10478000884A8EBA884A8E3AB6B83D3C2BDDB13B9A
:1047900014269ABBA91473BCB066D8BCB6B83DBB8E
:1047A00014261A3CB6B8BD3BB6B8BD3B65EFABBCF2
:1047B00014261ABCE426ED3BE4266DBC2BDDB1BB10
:1047C000925D5B3C65EF2B3C2BDD313C2BDDB1BCBE
:1047D000E426ED3AE426EDBAE426ED3A9F0126BB45
:1047E00007824F3C884A8E3AF0CA37BC2BDDB1BBFA
:1047F000CD6F553B82F8A83C9F0126BB9F0126BB8D
:10480000F71C9D3CC35C883C9F0126BC0782CF3CC3
:1048100014261ABC9F0126BB2BDDB1BB0DD4B43CC2
:104820006F02F9BBE426ED3A4E38143C884A8E3AC2
:10483000DA13203C925D5B3C9F01263BDA13A0BC5F
:10484000B6B83D3C9F0126BB00000000248BCCBCC9
:10485000B6B83DBA884A8EBA2BDDB13B884A8EBBCA
:104860009F0126BB4194C93B884A0E3B9F0126BB52
:104870009F01263BB6B83D3BB6B8BD3B35F07EBC8C
:10488000FD6E02BCA91473BCA6538B3C884A8E3AB9
:10489000FD6E82BB584BE1BB9F01A63B2BDDB13BBC
:1048A000E4266D3BE426EDBC584B61BCBC0AA33C3E
:1048B000884A8E3C584B613CFD6E823BB6B8BD3990
:1048C000884A8E3AC35C08BC7CA6C3BC884A8EBBAF
:1048D000FD6E82BBB6B8BDBAC35C08BCB6B8BDB984
:1048E00099AFC03CB6B83DBB9F01263BE4266D3B6B
:1048F000884A8E3A884A0EBC884A8E3B4194493C8D
:10490000E4266DBB4194C93B9F0126BBB6B8BD39B7
:104910006F02793CCD6F553CB6B83DBA2BDDB1BBCB
:10492000E426ED3A2BDDB1BBC35C083CCD6FD5BBB3
:1049300000000000B6B8BD3AF71C9D3C14261A3C96
:10494000884A8EBA4194C9BBB6B8BDB9E4266DBCDD
:10495000FD6E823BCD6F55BB884A0EBBB6B83DBBE2
:10496000884A8E3B2BDDB13B9F01A63BE426EDBA86
:104970004194C9BC9F01A6BB9F0126BCFD6E823C31
:104980004194C9BB584B61BCE426EDBA2BDDB1BBE9
:10499000FD6E82BBB6B83D3AE426ED3AC35C08BC76
:1049A0006F02F9BB4194C93B99AFC0BCB6B83D3B5F
:1049B000CD6FD53B7CA6433CE4266DBB6F02F93B33
:1049C000FD6E82BBB6B8BDBA884A8EBBB6B8BD39DB
:1049D000884A8EBB884A8EBBCD6F55BCBC0AA33CAF
:1049E000A914733CE426EDBB7CA6C3BC65EF2BBCCD
:1049F000CD6FD5BBB6B8BDBAC35C88BCB6B83D3BBD
:104A0000E065853C884A0E3CE4266D3B35F07EBC73
:104A1000884A0E3B9F0126BCCD6F55BB884A8EBA93
:104A2000C35C08BC4E38143CF0CA37BC7CA6433C7F
:104A3000584BE1BB584BE13B884A8EBBCD6F553B91
:104A40002BDD31BC2BDDB13BE4266D3B1E39673CD1
:104A500035F07E3C884A0E3BE426ED3ACD6F55BBDF
:104A6000884A0EBC6B41913C4194C9BC584BE13B18
:104A7000884A8E3ACD6FD5BBA6538BBCCD6F553BC4
:104A8000F0CAB7BCC35C883C7CA6433C14261A3CE5
:104A9000E426EDBA65EFABBCE4266D3B07824F3CE4
:104AA000B6B83DBBB6B8BDB9C35C083CE065853C53
:104AB000B6B8BD3A9F0126BCB6B8BD39B6B83D3BC5
:104AC000584BE1BBB6B8BD3AB6B83D3A584BE13B9E
:104AD000CD6F55BB14269A3B884A0E3C65EF2B3CA4
:104AE000FD6E82BBC35C08BCFD6E02BCCD6F55BCC5
:104AF000B6B83DBC35F07EBCB6B83D3BE426ED3AD9
:104B0000E5B0403B257F8A3C338A963CD7A5B4BBB1
:104B1000E5B0C0BB9AA8B7BCE5B0C039E5B0C0BA33
:104B2000AC8490BABA8F9C3BAC8490BCE5B0403B5F
:104B3000D7A5B43BD7A5343C10D2E43BD108153DF2
:104B4000AC8490BA7AC1D23CE8818D3CC89A283CAA
:104B5000E5B0C0BA02C7583BE5B0C0BA50A02EBC01
:104B60005EAB3ABC2DE8FCBB2DE8FCBB50A0AEBC54
:104B7000C89AA8BBC89A28BB338A16BC02C7583B40
:104B8000E8818D3CE5B0C0391EDD703B0598A53C41
:104B9000AC84103B00000000BA8F1C3C1EDDF0BB53
:104BA0004195A23C338A96BCD7A5B43B7AC1523C0E
:104BB000AC8490BAE5B0C03AE5B040BAD7A5B4BB72
:104BC000AC8410BBE8818D3CAC84103BE5B0C03AAE
:104BD00050A0AE3C257F0ABCAC84103BAC8490BA9C
:104BE0001EDDF03BAC84903B1EDD70BC89CC5E3C8E
:104BF0009D79843BE5B040BAAC8410BCF68C99BC7E
:104C0000E5B040BAD7A534BCE5B0C0B950A0AEBC41
:104C100002C7583C2DE8FCBB02C758BBE8818D3C5D
:104C2000BA8F1C3CC89A283C2DE8FC3C1EDD70BCA9
:104C3000AC8490BB9D79843BC89AA83B257F0ABC75
:104C40009D7904BC5BDAEDBC02C7D8BB9AA8B7BC9F
:104C5000E5B0C03902C758BB6CB6463CBA8F9CBBA6
:104C6000F3BBCCBB617C07BDBA8F1C3C30B9C93CDF
:104C7000C89A283B1EDDF0BAE5B040BA2DE8FC3BEF
:104C80007AC1D23CE5B0C039AC8410BC8C9DAB3C41
:104C900050A02E3CAC8410BB6F87933CAC84903BFF
:104CA0001EDDF0BA419522BCD7A534BCE5B0403A30
:104CB000A5E276BCE5B0403B6CB6463C0000000087
:104CC000F3BB4CBC1EDDF0BBD7A5B43BE5B0C03A8E
:104CD00050A02EBC9D7904BCAC84903AE5B0C0BA1B
:104CE000F3BBCCBBDA76813CAC8410BB1EDDF03B61
:104CF000C89AA8BB13A3B13CF3BB4C3CE5B0C03988
:104D0000338A16BCC89AA83BBA8F9C3BB7BECFBCAF
:104D100002C7583C1EDDF0BAE5B0C0BBE5B0403A72
:104D2000FFFA05BD7AC152BC419522BCC89A283B06
:104D3000A5E276BCC89A28BC10D2E4BBD7A534BC87
:104D4000419522BCF3BB4CBCD7A534BC97D7EABC79
:104D5000E5B040BC00000000C89A28BB338A963CEE
:104D600013A3B1BC02C7D8BB10D2E4BBC89A28BBFE
:104D70009D7904BC5EAB3A3C1EDD70BBF68C993C61
:104D80001EDD703B97D76ABC02C7D83B000000000D
:104D900089CC5E3CE5B0C0B9BA8F9C3BE5B0C0B9E8
:104DA000E5B0C0BA10D2E4BB6CB646BC13A3B1BC2C
:104DB00097D76ABCD7A5B43B1EDD70BB10D264BCCC
:104DC00002C7D8BB257F0A3C89CC5E3C10D2643C2C
:104DD0007E929FBC9D7984BC9D7984BBF3BB4C3C87
:104DE000338A16BC1EDDF0BB832F3F3DE5B040BCCF
:104DF000AC8410BC2DE8FCBBE5B040BAE5B0C039CE
:104E00005EABBA3CE5B0403B5EAB3A3CBA8F9C3CF3
:104E1000AC8490BC257F0A3C02C7D8BBE5B040BB40
:104E2000338A16BC5EAB3A3C617C873C9D79843BFF
:104E3000C89A283B02C7D8BB89CC5E3CAC8410BB67
:104E400002C758BBE5B0C0B910D2643CC89A283C30
:104E5000617C07BDC89A28BB1EDDF03AF68C99BC70
:104E60004195A2BCDA76813CD4D4E73CF3BBCC3B81
:104E70003EC4D5BC02C7D8BB9D7984BBF3BBCCBBB9
:104E8000D7A5343C10D2E4BBAC84103B5BDAEDBC5C
:104E9000BA8F1CBCAC8490BB02C758BB9D7904BCC4
:104EA00069E5F9BC02C7D83B338A963CAC8490BC18
:104EB00002C7583B257F0ABCAC84903A9D7984BBDD
:104EC000A5E276BC338A96BC2DE87CBC419522BC19
:104ED000257F0A3CC89AA83BAC84103BE5B0C03A99
:104EE00089CC5EBC1EDD703B02C758BBE5B0C03943
:104EF000BA8F9CBBC89A283C02C7D8BBC89A283C2A
:104F0000257F8ABC00000000E5B0C0BA9D7984BB53
:104F1000AC8410BBAC8490BAE5B040BBBA8F9CBBEC
:104F2000AC84903A4195223C6F87933CE5B0C0BC7D
:104F3000AC8490BB338A163CC3FD083D9D79843C0C
:104F4000C89A283B10D264BC10D2E4BB1EDD70BBF3
:104F50001EDD70BBC89AA83B1EDDF03AC89A28BC7B
:104F6000C89A283BA9B3C3BCF3BBCC3B21AEBDBCA4
:104F7000A5E2763C1EDD703B21AEBDBCE5B040BA7B
:104F8000C89A28BCC89AA8BCAC84103C0000000099
:104F9000C89A283BAC8490BA257F8ABC89CCDEBCF9
:104FA0001EDD703B1EDD70BC6F8793BCD7A5B43B84
:104FB0009D79843BE5B0C03BE5B0C03A13A3B1BCDA
:104FC00089CC5E3CE5B040BC7AC1523CBA8F9CBBF8
:104FD000BA8F1CBC50A02EBCE5B0C03AAC84903C4B
:104FE0000E0612BDE5B0C0BAE5B0C0B9A5E2763C88
:104FF00050A0AEBC6CB646BC257F8A3CD7A5B4BCDD
:10500000E5B040BA9D7904BCAC8410BB617C87BC20
:105010009D7984BBA5E2F6BCE5B0C0B9C89AA83BAF
:1050200002C7D83B02C758BB02C758BB02C758BB10
:105030009D79043CAC8490BAAC8410BBE8818DBCF3
:10504000AC8490BAC89A283BE5B0C0B99D79043CBD
:10505000BA8F9CBBE5B0403AF3BBCC3BE5B0C0B9DE
:10506000E5B0403A10D2E4BBAC8410BB6F8793BC70
:105070004195223C257F8A3CE5B0C0B9E5B040BBF4
:10508000AC84103BE5B0C0391EDD703CE5B0403C5F
:10509000AC84903C1EDDF0BA4195223CBA8F9CBB9B
:1050A000E5B040BCC89A28BB89CC5E3C419522BC87
:1050B0002DE87C3C1EDDF03AC89A28BBE5B0C0392B
:1050C00010D2E43BD7A5B4BBAC8490BC9D7904BDA1
:1050D000AC84103CBA8F9CBCE5B0403A1EDDF0BCFD
:1050E000AC84903C89CC5E3CA5E2F6BCE5B0403C8B
:1050F0007E929FBC338A163CC89AA83BAC8490BA77
:10510000BA8F9CBBC89A283B2DE8FC3BC89AA83BA9
:105110001EDD703BE5B040BA7AC152BCAC8490BA97
:105120001EDDF0BAAC84103CBA8F9C3B1EDDF0BA99
:10513000AC8410BC10D2E43BE5B040BBE5B0C0BBD2
:1051400010D2E43BAC84103BBA8F1CBCAC8490BC46
:10515000DA7681BC000000002DE8FC3B10D2E43B75
:105160000000000010D264BC02C758BBC89AA83B1C
:10517000AC84103BAC8410BBAC8410BC10D2E4BB3C
:10518000FFFA05BDE5B0C0B98C9DAB3CAC8490BBCB
:105190001EDD70BBC89AA8BBBA8F9CBCE5B0C0BA74
:1051A000F3BBCCBBE5B0C0BC617C87BCE5B0403A8A
:1051B000C89AA8BB9D79043CE5B0403A00000000C5
:1051C0002DE8FCBB89CC5E3C617C873CD7A5B4BB99
:1051D000A5E2F6BC00000000C89AA8BBE5B040BB41
:1051E000E5B0C039AC8490BADA7681BC13A331BD86
:1051F000AC8410BCC89AA8BBC89A28BB7AC1D2BCE0
:10520000AC8490BA6CB6C6BC6CB646BCAC8490BAE2
:10521000AC8490BAE8818D3CB7BECFBC1EDDF0BB3C
:10522000F3BBCC3BE5B0403B02C7D83B50A02E3C83
:105230001EDDF0BBE5B040BBAC8490BCE5B040BA2D
:1052400050A02E3CBA8F9C3CD7A5B43C6F87933CB2
:1052500013A3B13C1EDD703B9D7984BBA9B3C33C55
:1052600002C7583B9D79043CAC84103CE5B040BA81
:10527000BA8F1CBCE5B0C0BAC89AA8BBE5B040BBA9
:10528000AC8490BB02C7583B6CB646BCE5B040BA94
:1052900089CC5E3CE5B0403B7E929F3CA5E2F6BCEB
:1052A000E5B0C03910D2E4BB1EDD703B10D2E4BBC8
:1052B00089CC5EBCE5B0403BE5B0403AAC8410BC64
:1052C000E5B0C0B95EAB3A3C02C7D8BB6CB6463C51
:1052D0006CB6463C9D7904BC338A163CAC8490BACB
:1052E00000000000C89AA8BB257F0A3CE5B0C0BA00
:1052F000F3BBCCBB89CC5E3C5EAB3A3CC89AA8BB46
:10530000E8818D3CE5B0403AE5B0C03AD7A5B43B62
:105310009D7984BB97D76A3C419522BC6CB646BC4C
:105320001EDDF03AC89AA8BCE5B040BBF3BBCCBBCD
:10533000F3BBCC3BE5B0C0BA6F87933C617C873C44
:105340009D7904BCE8818D3C1EDDF0BABA8F9C3C8F
:10535000C89AA8BCF3BBCC3BC89A28BC000000008C
:1053600002C7583B10D2643CF3BBCCBBAC8490BAB0
:105370006CB646BC89CC5EBC69E5F9BC1EDD70BC70
:105380001EDD703B89CC5E3C4195A23C7AC1523C0B
:10539000257F0A3C338A963C7E929FBCAC8410BC2D
:1053A00010D2643C338A16BCAC8490BAC89A28BB2D
:1053B000C89A28BB9D79843BC89A28BBE5B0C0B980
:1053C000257F8ABC1EDD703B9D7984BBF68C99BC21
:1053D000A5E2763C4195223C1EDD703C9D79843CE3
:1053E00002C7583C1EDD70BBD7A5B4BBD7A5343C63
:1053F0009AA8B7BC50A02E3C2DE8FC3B9D7984BBFD
:10540000E5B0C03BF3BBCC3BE5B0C03CAC8490BA4C
:1054100021AEBD3CAC8490BAF3BBCC3BAC8490BB1A
:10542000BA8F1CBC9D79843BC89A283C9D79043C6A
:105430004195A2BC5EABBA3C1EDD70BCE5B0403C01
:105440007AC1D2BC1EDD703BE5B040BCBA8F9CBBBC
:10545000D7A5343C338A16BCE5B0C0BBAC84903AC7
:10546000BA8F1C3C9D79043CD4D4E73CD7A5343C8E
:10547000F3BB4CBC338A963CAC8410BC02C7D83B0F
:10548000A5E2763C21AEBD3CC89A283B338A16BCC7
:10549000D4D4E7BC419522BCE5B0403A338A96BCEF
:1054A0001EDDF03B0598A53C02C7D8BBAC84903A02
:1054B000F3BBCCBBBA8F9C3BE5B0C0B9BA8F1C3CE8
:1054C000D7A534BCBA8F1CBCE5B0C03AAC8410BCC4
:1054D0004195223CBA8F9C3B1EDD70BB89CC5EBCE3
:1054E000D7A5B4BB5EAB3A3C02C758BC10D2E4BBF4
:1054F000F3BBCC3B00000000C89AA83BE5B0403BA2
:1055000086000CBD2DE8FC3B6CB646BCE5B0C0BBCC
:10551000000000009D7984BB2DE87CBCC89AA83BA4
:10552000AC8410BCE5B0C0B9E5B0403A50A0AE3C88
:105530004195A23CD7A5B4BBF3BBCCBBE5B0403B87
:105540001EDD70BBE5B0403AC89AA8BBC89A28BC1B
:1055500097D76A3C02C758BBE5B0C0BAE8818D3C1A
:10556000D7A5B43BBA8F9CBB7AC1523C5EABBA3C68
:105570009D79843C02C7D8BB8C9DABBCD4D4E7BC1E
:10558000E5B0403AC89A28BB6F87933C0598A5BC04
:10559000257F0A3C9D79843CC89AA83BB7BECFBC06
:1055A000E5B0C03BD4D4E7BCE5B0C0B95EAB3ABC13
:1055B0001EDD703BC89AA8BBAC84903C50A0AE3CAA
:1055C0004195223CAC84903B9D7904BC9AA8B73CA1
:1055D0004195A23CE5B0403BE5B0C039AC84903B7E
:1055E000AC84103CE5B0C03AAC84903A1EDD70BB90
:1055F000E5B0403CAC8410BB4195A2BCF3BBCC3BB6
:105600006F87933C50A02EBC7E929F3CF3BB4C3CDA
:10561000E5B0C03C5BDAEDBCAC8410BB4CCFE1BC68
:1056200002C758BCD10815BDAC84103BD7A5B4BB8C
:10563000C89A28BBBA8F9C3BAC8410BB419522BC56
:10564000E5B0C03A9D7904BCDA7601BDF68C99BC10
:10565000257F0A3CF3BBCC3B4195223C1EDDF0BAD2
:105660002DE8FCBB1EDDF0BB257F8A3C21AEBDBC16
:10567000AC84903B8C9DAB3C257F0ABCC89A28BB70
:105680009D79043CE5B0403BC89AA83CC89AA83B29
:10569000C89AA8BBA5E276BC02C7D8BBE5B0C0BA21
:1056A0009D7984BB02C7583B8C9DAB3CD4D4E7BCEE
:1056B00089CC5EBCA5E2763CAC8410BCE5B040BBB6
:1056C00002C7D83B1EDDF0BAF3BBCC3B10D2E4BB23
:1056D00097D76ABC1EDDF03A02C7583CF3BB4C3C7E
:1056E0006F87933CC89AA83BAC8490BCE5B0C03BA4
:1056F0001EDDF03A7AC1523CBA8F9CBB1EDDF0BA77
:105700004195223C1EDDF0BA10D264BC6F87933CF9
:105710006F8793BC1EDDF0BB02C7583B97D76A3C2E
:105720009D7904BCC89A28BBC89AA8BB1EDDF03A74
:10573000C89A283C5EAB3A3CE5B0C03BDA7681BC07
:10574000338A963CE5B0C0BB9D79843BDA7681BC58
:105750001EDDF0BBBA8F9CBB21AEBD3C6CB6C6BC97
:105760008C9DABBCC89AA83BAC84103CE5B0C0BAD9
:10577000AC8490BB4195223C02C7D8BBA5E276BC65
:10578000BA8F1CBC1EDD70BBF68C993CC89A283BB6
:10579000AC8490BA1EDDF03AAC84903BE5B0C0BA60
:1057A0001EDDF0BB4195A2BC419522BC50A0AE3C91
:1057B0008C9DAB3CF68C993CC89AA8BBE5B040BA2E
:1057C0006F87933C30B9C9BC5EABBABC1EDD703B81
:1057D0009D7904BC6CB6463CF3BBCCBB257F0A3C30
:1057E00002C7D83B10D2E4BB02C7D83BC89AA83C3A
:1057F0001EDD703B21AEBDBCE5B0C0BAAC84903BB1
:10580000C89AA8BBE5B0C0BBAC84903A419522BC15
:10581000AC84903C1EDD703C9D79843B9D7984BBBB
:10582000C89A28BBE5B040BBAC84903C8C9DABBC17
:10583000E5B0C03BE5B040BAAC8410BC338A163C3E
:10584000D7A5B4BB257F8ABCC89A283B4195A2BC8A
:1058500002C7D8BB00000000338A16BC1EDDF0BBB7
:10586000AC8410BB257F0ABC1EDDF03A9D7904BCD8
:10587000AC8410BCE5B0C0B9D7A5B43B1EDD703C0C
:1058800000000000AC8410BDE5B040BCAC84903B8F
:10589000AC84903AD7A534BCBA8F1CBCE8818DBCCF
:1058A000F3BBCCBBAC8490BA9AA8B7BCD7A5B4BBA9
:1058B0002DE87CBC4195A23CC89A28BCBA8F1CBC80
:1058C0005EAB3ABCE5B0C039C89AA83BAC8410BC0A
:1058D00002C758BB257F0A3C9D7904BC2DE87C3C5F
:1058E00000000000E5B0C0BB6F8713BDE5B0403AD3
:1058F000AC8490BBE5B0403AD7A5B4BBE5B0403B23
:10590000E5B0403CAC84103CBA8F1CBCBA8F9CBC48
:10591000AC84103BBA8F1CBCE5B0C0B91EDDF0BB37
:105920001EDDF0BA89CC5E3CE5B040BCE5B040BAC3
:10593000AC84103BD7A5B43BE5B0C03B7E929F3C06
:10594000E5B040BCD7A5343CA5E2763CBA8F9C3C80
:1059500013A3B13C617C873C0000000030B9C9BC96
:10596000338A96BCC89A28BC13A3B1BC10D264BCBD
:105970001EDD703B6CB646BC6F8793BC338A16BC89
:105980009AA8B7BC4195223C5EAB3A3C10D2E43BAE
:105990001EDD70BC1EDDF03A9D79843BE5B0403CD5
:1059A000AC8410BBE5B0C03A02C7D83BF3BB4C3C5B
:1059B00050A0AE3CF3BB4CBC00000000E5B0C0BB47
:1059C000E5B040BB97D76A3C2DE87C3C9D79043C10
:1059D000E5B0C0B9AC84103CE5B0C0B91EDD70BB09
:1059E000E5B0C0BAE5B0C0B9E5B040BCC89AA83CC3
:1059F000C89AA83BAC8490BC02C7D83BC89AA83BC5
:105A00001EBA023CA568233DA56823BDB09A993D06
:105A10009F61783D1EBA823CC929513C024F6B3CC4
:105A2000F3F1A9BCC929D13A17B3573D900437BC4B
:105A3000C92951BDF3F1A9BCA56823BD17B357BD52
:105A4000E9BFB3BD57DF1CBD7BA04ABD900437BC86
:105A5000DE8DBDBDF3F129BD1EBA02BCEDEA7EBDEF
:105A60000856163D57DF1CBC024FEB3C6C43893D8A
:105A7000085616BD024F6B3D024F6B3D9F61F8BC4F
:105A8000F3F1A93C427B30BD6111933D663CDE3CA5
:105A9000A568A33DF3F1A93C5B0AE8BDBEF7DA3D7A
:105AA0002C17C4BC9004373CF3F129BDC929D1BCE3
:105AB0002C17C43C1EBA82BD9F6178BDF3F129BD8D
:105AC00000000000EDEA7E3DBACC0FBD2C17C4BC2F
:105AD000C929513B57DF1CBDC92951BDDE8D3DBDD4
